{
  "_format": "hh-sol-artifact-1",
  "contractName": "DonationContract",
  "sourceName": "contracts/Donation-Hardened.sol",
  "abi": [
    {
      "inputs": [
        {
          "internalType": "address",
          "name": "_eco",
          "type": "address"
        },
        {
          "internalType": "address",
          "name": "_multiSigWallet",
          "type": "address"
        },
        {
          "internalType": "address",
          "name": "_treasuryAddress",
          "type": "address"
        },
        {
          "internalType": "string[4]",
          "name": "uris",
          "type": "string[4]"
        }
      ],
      "stateMutability": "nonpayable",
      "type": "constructor"
    },
    {
      "anonymous": false,
      "inputs": [
        {
          "indexed": true,
          "internalType": "address",
          "name": "owner",
          "type": "address"
        },
        {
          "indexed": true,
          "internalType": "address",
          "name": "approved",
          "type": "address"
        },
        {
          "indexed": true,
          "internalType": "uint256",
          "name": "tokenId",
          "type": "uint256"
        }
      ],
      "name": "Approval",
      "type": "event"
    },
    {
      "anonymous": false,
      "inputs": [
        {
          "indexed": true,
          "internalType": "address",
          "name": "owner",
          "type": "address"
        },
        {
          "indexed": true,
          "internalType": "address",
          "name": "operator",
          "type": "address"
        },
        {
          "indexed": false,
          "internalType": "bool",
          "name": "approved",
          "type": "bool"
        }
      ],
      "name": "ApprovalForAll",
      "type": "event"
    },
    {
      "anonymous": false,
      "inputs": [
        {
          "indexed": false,
          "internalType": "uint256",
          "name": "_fromTokenId",
          "type": "uint256"
        },
        {
          "indexed": false,
          "internalType": "uint256",
          "name": "_toTokenId",
          "type": "uint256"
        }
      ],
      "name": "BatchMetadataUpdate",
      "type": "event"
    },
    {
      "anonymous": false,
      "inputs": [
        {
          "indexed": true,
          "internalType": "enum DonationContract.Foundation",
          "name": "f",
          "type": "uint8"
        },
        {
          "indexed": true,
          "internalType": "address",
          "name": "sender",
          "type": "address"
        },
        {
          "indexed": false,
          "internalType": "uint256",
          "name": "amount",
          "type": "uint256"
        },
        {
          "indexed": false,
          "internalType": "string",
          "name": "message",
          "type": "string"
        }
      ],
      "name": "DonationMade",
      "type": "event"
    },
    {
      "anonymous": false,
      "inputs": [
        {
          "indexed": true,
          "internalType": "address",
          "name": "account",
          "type": "address"
        }
      ],
      "name": "EmergencyPause",
      "type": "event"
    },
    {
      "anonymous": false,
      "inputs": [
        {
          "indexed": true,
          "internalType": "enum DonationContract.Foundation",
          "name": "f",
          "type": "uint8"
        },
        {
          "indexed": false,
          "internalType": "address",
          "name": "oldAddr",
          "type": "address"
        },
        {
          "indexed": false,
          "internalType": "address",
          "name": "newAddr",
          "type": "address"
        }
      ],
      "name": "FoundationUpdated",
      "type": "event"
    },
    {
      "anonymous": false,
      "inputs": [
        {
          "indexed": false,
          "internalType": "uint256",
          "name": "_tokenId",
          "type": "uint256"
        }
      ],
      "name": "MetadataUpdate",
      "type": "event"
    },
    {
      "anonymous": false,
      "inputs": [
        {
          "indexed": true,
          "internalType": "address",
          "name": "previousOwner",
          "type": "address"
        },
        {
          "indexed": true,
          "internalType": "address",
          "name": "newOwner",
          "type": "address"
        }
      ],
      "name": "OwnershipTransferred",
      "type": "event"
    },
    {
      "anonymous": false,
      "inputs": [
        {
          "indexed": false,
          "internalType": "address",
          "name": "account",
          "type": "address"
        }
      ],
      "name": "Paused",
      "type": "event"
    },
    {
      "anonymous": false,
      "inputs": [
        {
          "indexed": true,
          "internalType": "address",
          "name": "donor",
          "type": "address"
        },
        {
          "indexed": false,
          "internalType": "uint256",
          "name": "feeAmount",
          "type": "uint256"
        },
        {
          "indexed": false,
          "internalType": "uint256",
          "name": "donationAmount",
          "type": "uint256"
        }
      ],
      "name": "PlatformFeeCollected",
      "type": "event"
    },
    {
      "anonymous": false,
      "inputs": [
        {
          "indexed": true,
          "internalType": "address",
          "name": "account",
          "type": "address"
        },
        {
          "indexed": false,
          "internalType": "uint256",
          "name": "amount",
          "type": "uint256"
        }
      ],
      "name": "RateLimitTriggered",
      "type": "event"
    },
    {
      "anonymous": false,
      "inputs": [
        {
          "indexed": false,
          "internalType": "string",
          "name": "message",
          "type": "string"
        },
        {
          "indexed": true,
          "internalType": "address",
          "name": "account",
          "type": "address"
        }
      ],
      "name": "SecurityAlert",
      "type": "event"
    },
    {
      "anonymous": false,
      "inputs": [
        {
          "indexed": true,
          "internalType": "address",
          "name": "donor",
          "type": "address"
        },
        {
          "indexed": false,
          "internalType": "uint256",
          "name": "balance",
          "type": "uint256"
        }
      ],
      "name": "TokenBalanceUpdated",
      "type": "event"
    },
    {
      "anonymous": false,
      "inputs": [
        {
          "indexed": true,
          "internalType": "address",
          "name": "from",
          "type": "address"
        },
        {
          "indexed": true,
          "internalType": "address",
          "name": "to",
          "type": "address"
        },
        {
          "indexed": true,
          "internalType": "uint256",
          "name": "tokenId",
          "type": "uint256"
        }
      ],
      "name": "Transfer",
      "type": "event"
    },
    {
      "anonymous": false,
      "inputs": [
        {
          "indexed": true,
          "internalType": "address",
          "name": "recipient",
          "type": "address"
        },
        {
          "indexed": false,
          "internalType": "uint256",
          "name": "amount",
          "type": "uint256"
        }
      ],
      "name": "TreasuryWithdrawal",
      "type": "event"
    },
    {
      "anonymous": false,
      "inputs": [
        {
          "indexed": false,
          "internalType": "address",
          "name": "account",
          "type": "address"
        }
      ],
      "name": "Unpaused",
      "type": "event"
    },
    {
      "stateMutability": "payable",
      "type": "fallback"
    },
    {
      "inputs": [],
      "name": "DAILY_LIMIT",
      "outputs": [
        {
          "internalType": "uint256",
          "name": "",
          "type": "uint256"
        }
      ],
      "stateMutability": "view",
      "type": "function"
    },
    {
      "inputs": [],
      "name": "FEE_DENOMINATOR",
      "outputs": [
        {
          "internalType": "uint256",
          "name": "",
          "type": "uint256"
        }
      ],
      "stateMutability": "view",
      "type": "function"
    },
    {
      "inputs": [],
      "name": "MAX_DONATION",
      "outputs": [
        {
          "internalType": "uint256",
          "name": "",
          "type": "uint256"
        }
      ],
      "stateMutability": "view",
      "type": "function"
    },
    {
      "inputs": [],
      "name": "MIN_DONATION",
      "outputs": [
        {
          "internalType": "uint256",
          "name": "",
          "type": "uint256"
        }
      ],
      "stateMutability": "view",
      "type": "function"
    },
    {
      "inputs": [],
      "name": "PLATFORM_FEE_PERCENTAGE",
      "outputs": [
        {
          "internalType": "uint256",
          "name": "",
          "type": "uint256"
        }
      ],
      "stateMutability": "view",
      "type": "function"
    },
    {
      "inputs": [],
      "name": "RATE_LIMIT_INTERVAL",
      "outputs": [
        {
          "internalType": "uint256",
          "name": "",
          "type": "uint256"
        }
      ],
      "stateMutability": "view",
      "type": "function"
    },
    {
      "inputs": [
        {
          "internalType": "address",
          "name": "to",
          "type": "address"
        },
        {
          "internalType": "uint256",
          "name": "tokenId",
          "type": "uint256"
        }
      ],
      "name": "approve",
      "outputs": [],
      "stateMutability": "nonpayable",
      "type": "function"
    },
    {
      "inputs": [
        {
          "internalType": "address",
          "name": "owner",
          "type": "address"
        }
      ],
      "name": "balanceOf",
      "outputs": [
        {
          "internalType": "uint256",
          "name": "",
          "type": "uint256"
        }
      ],
      "stateMutability": "view",
      "type": "function"
    },
    {
      "inputs": [
        {
          "internalType": "uint256",
          "name": "donationAmount",
          "type": "uint256"
        }
      ],
      "name": "calculatePlatformFee",
      "outputs": [
        {
          "internalType": "uint256",
          "name": "fee",
          "type": "uint256"
        },
        {
          "internalType": "uint256",
          "name": "netDonation",
          "type": "uint256"
        }
      ],
      "stateMutability": "pure",
      "type": "function"
    },
    {
      "inputs": [
        {
          "internalType": "address",
          "name": "user",
          "type": "address"
        }
      ],
      "name": "canDonate",
      "outputs": [
        {
          "internalType": "bool",
          "name": "",
          "type": "bool"
        }
      ],
      "stateMutability": "view",
      "type": "function"
    },
    {
      "inputs": [
        {
          "internalType": "address",
          "name": "",
          "type": "address"
        }
      ],
      "name": "dailyDonationAmount",
      "outputs": [
        {
          "internalType": "uint256",
          "name": "",
          "type": "uint256"
        }
      ],
      "stateMutability": "view",
      "type": "function"
    },
    {
      "inputs": [
        {
          "internalType": "enum DonationContract.Foundation",
          "name": "f",
          "type": "uint8"
        },
        {
          "internalType": "string",
          "name": "message_",
          "type": "string"
        }
      ],
      "name": "donate",
      "outputs": [],
      "stateMutability": "payable",
      "type": "function"
    },
    {
      "inputs": [
        {
          "internalType": "enum DonationContract.Foundation",
          "name": "f",
          "type": "uint8"
        },
        {
          "internalType": "string",
          "name": "message_",
          "type": "string"
        },
        {
          "internalType": "address",
          "name": "beneficiary",
          "type": "address"
        }
      ],
      "name": "donateOnBehalf",
      "outputs": [],
      "stateMutability": "payable",
      "type": "function"
    },
    {
      "inputs": [],
      "name": "eco",
      "outputs": [
        {
          "internalType": "contract EcoCoin",
          "name": "",
          "type": "address"
        }
      ],
      "stateMutability": "view",
      "type": "function"
    },
    {
      "inputs": [],
      "name": "emergencyPause",
      "outputs": [],
      "stateMutability": "nonpayable",
      "type": "function"
    },
    {
      "inputs": [],
      "name": "emergencyUnpause",
      "outputs": [],
      "stateMutability": "nonpayable",
      "type": "function"
    },
    {
      "inputs": [
        {
          "internalType": "enum DonationContract.Foundation",
          "name": "",
          "type": "uint8"
        }
      ],
      "name": "foundationAddresses",
      "outputs": [
        {
          "internalType": "address",
          "name": "",
          "type": "address"
        }
      ],
      "stateMutability": "view",
      "type": "function"
    },
    {
      "inputs": [
        {
          "internalType": "uint256",
          "name": "tokenId",
          "type": "uint256"
        }
      ],
      "name": "getApproved",
      "outputs": [
        {
          "internalType": "address",
          "name": "",
          "type": "address"
        }
      ],
      "stateMutability": "view",
      "type": "function"
    },
    {
      "inputs": [
        {
          "internalType": "uint256",
          "name": "tokenId",
          "type": "uint256"
        }
      ],
      "name": "getDonationDetails",
      "outputs": [
        {
          "internalType": "enum DonationContract.Foundation",
          "name": "foundation",
          "type": "uint8"
        },
        {
          "internalType": "uint256",
          "name": "amount",
          "type": "uint256"
        }
      ],
      "stateMutability": "view",
      "type": "function"
    },
    {
      "inputs": [
        {
          "internalType": "address",
          "name": "user",
          "type": "address"
        }
      ],
      "name": "getRemainingDailyLimit",
      "outputs": [
        {
          "internalType": "uint256",
          "name": "",
          "type": "uint256"
        }
      ],
      "stateMutability": "view",
      "type": "function"
    },
    {
      "inputs": [],
      "name": "getTreasuryBalance",
      "outputs": [
        {
          "internalType": "uint256",
          "name": "",
          "type": "uint256"
        }
      ],
      "stateMutability": "view",
      "type": "function"
    },
    {
      "inputs": [
        {
          "internalType": "address",
          "name": "owner",
          "type": "address"
        },
        {
          "internalType": "address",
          "name": "operator",
          "type": "address"
        }
      ],
      "name": "isApprovedForAll",
      "outputs": [
        {
          "internalType": "bool",
          "name": "",
          "type": "bool"
        }
      ],
      "stateMutability": "view",
      "type": "function"
    },
    {
      "inputs": [
        {
          "internalType": "address",
          "name": "",
          "type": "address"
        }
      ],
      "name": "lastDailyReset",
      "outputs": [
        {
          "internalType": "uint256",
          "name": "",
          "type": "uint256"
        }
      ],
      "stateMutability": "view",
      "type": "function"
    },
    {
      "inputs": [
        {
          "internalType": "address",
          "name": "",
          "type": "address"
        }
      ],
      "name": "lastDonationTime",
      "outputs": [
        {
          "internalType": "uint256",
          "name": "",
          "type": "uint256"
        }
      ],
      "stateMutability": "view",
      "type": "function"
    },
    {
      "inputs": [],
      "name": "multiSigWallet",
      "outputs": [
        {
          "internalType": "address",
          "name": "",
          "type": "address"
        }
      ],
      "stateMutability": "view",
      "type": "function"
    },
    {
      "inputs": [],
      "name": "name",
      "outputs": [
        {
          "internalType": "string",
          "name": "",
          "type": "string"
        }
      ],
      "stateMutability": "view",
      "type": "function"
    },
    {
      "inputs": [],
      "name": "nextId",
      "outputs": [
        {
          "internalType": "uint256",
          "name": "",
          "type": "uint256"
        }
      ],
      "stateMutability": "view",
      "type": "function"
    },
    {
      "inputs": [],
      "name": "owner",
      "outputs": [
        {
          "internalType": "address",
          "name": "",
          "type": "address"
        }
      ],
      "stateMutability": "view",
      "type": "function"
    },
    {
      "inputs": [
        {
          "internalType": "uint256",
          "name": "tokenId",
          "type": "uint256"
        }
      ],
      "name": "ownerOf",
      "outputs": [
        {
          "internalType": "address",
          "name": "",
          "type": "address"
        }
      ],
      "stateMutability": "view",
      "type": "function"
    },
    {
      "inputs": [],
      "name": "paused",
      "outputs": [
        {
          "internalType": "bool",
          "name": "",
          "type": "bool"
        }
      ],
      "stateMutability": "view",
      "type": "function"
    },
    {
      "inputs": [],
      "name": "renounceOwnership",
      "outputs": [],
      "stateMutability": "nonpayable",
      "type": "function"
    },
    {
      "inputs": [
        {
          "internalType": "address",
          "name": "from",
          "type": "address"
        },
        {
          "internalType": "address",
          "name": "to",
          "type": "address"
        },
        {
          "internalType": "uint256",
          "name": "tokenId",
          "type": "uint256"
        }
      ],
      "name": "safeTransferFrom",
      "outputs": [],
      "stateMutability": "nonpayable",
      "type": "function"
    },
    {
      "inputs": [
        {
          "internalType": "address",
          "name": "from",
          "type": "address"
        },
        {
          "internalType": "address",
          "name": "to",
          "type": "address"
        },
        {
          "internalType": "uint256",
          "name": "tokenId",
          "type": "uint256"
        },
        {
          "internalType": "bytes",
          "name": "data",
          "type": "bytes"
        }
      ],
      "name": "safeTransferFrom",
      "outputs": [],
      "stateMutability": "nonpayable",
      "type": "function"
    },
    {
      "inputs": [
        {
          "internalType": "address",
          "name": "operator",
          "type": "address"
        },
        {
          "internalType": "bool",
          "name": "approved",
          "type": "bool"
        }
      ],
      "name": "setApprovalForAll",
      "outputs": [],
      "stateMutability": "nonpayable",
      "type": "function"
    },
    {
      "inputs": [
        {
          "internalType": "enum DonationContract.Foundation",
          "name": "f",
          "type": "uint8"
        },
        {
          "internalType": "address",
          "name": "addr",
          "type": "address"
        }
      ],
      "name": "setFoundationAddress",
      "outputs": [],
      "stateMutability": "nonpayable",
      "type": "function"
    },
    {
      "inputs": [
        {
          "internalType": "enum DonationContract.Foundation",
          "name": "f",
          "type": "uint8"
        },
        {
          "internalType": "bool",
          "name": "verified",
          "type": "bool"
        }
      ],
      "name": "setFoundationVerification",
      "outputs": [],
      "stateMutability": "nonpayable",
      "type": "function"
    },
    {
      "inputs": [
        {
          "internalType": "bytes4",
          "name": "interfaceId",
          "type": "bytes4"
        }
      ],
      "name": "supportsInterface",
      "outputs": [
        {
          "internalType": "bool",
          "name": "",
          "type": "bool"
        }
      ],
      "stateMutability": "view",
      "type": "function"
    },
    {
      "inputs": [],
      "name": "symbol",
      "outputs": [
        {
          "internalType": "string",
          "name": "",
          "type": "string"
        }
      ],
      "stateMutability": "view",
      "type": "function"
    },
    {
      "inputs": [
        {
          "internalType": "uint256",
          "name": "tokenId",
          "type": "uint256"
        }
      ],
      "name": "tokenURI",
      "outputs": [
        {
          "internalType": "string",
          "name": "",
          "type": "string"
        }
      ],
      "stateMutability": "view",
      "type": "function"
    },
    {
      "inputs": [],
      "name": "totalDonations",
      "outputs": [
        {
          "internalType": "uint256",
          "name": "",
          "type": "uint256"
        }
      ],
      "stateMutability": "view",
      "type": "function"
    },
    {
      "inputs": [],
      "name": "totalFeesCollected",
      "outputs": [
        {
          "internalType": "uint256",
          "name": "",
          "type": "uint256"
        }
      ],
      "stateMutability": "view",
      "type": "function"
    },
    {
      "inputs": [
        {
          "internalType": "address",
          "name": "from",
          "type": "address"
        },
        {
          "internalType": "address",
          "name": "to",
          "type": "address"
        },
        {
          "internalType": "uint256",
          "name": "tokenId",
          "type": "uint256"
        }
      ],
      "name": "transferFrom",
      "outputs": [],
      "stateMutability": "nonpayable",
      "type": "function"
    },
    {
      "inputs": [
        {
          "internalType": "address",
          "name": "newOwner",
          "type": "address"
        }
      ],
      "name": "transferOwnership",
      "outputs": [],
      "stateMutability": "nonpayable",
      "type": "function"
    },
    {
      "inputs": [],
      "name": "treasuryAddress",
      "outputs": [
        {
          "internalType": "address",
          "name": "",
          "type": "address"
        }
      ],
      "stateMutability": "view",
      "type": "function"
    },
    {
      "inputs": [
        {
          "internalType": "enum DonationContract.Foundation",
          "name": "",
          "type": "uint8"
        }
      ],
      "name": "verifiedFoundations",
      "outputs": [
        {
          "internalType": "bool",
          "name": "",
          "type": "bool"
        }
      ],
      "stateMutability": "view",
      "type": "function"
    },
    {
      "inputs": [
        {
          "internalType": "address payable",
          "name": "recipient",
          "type": "address"
        },
        {
          "internalType": "uint256",
          "name": "amount",
          "type": "uint256"
        }
      ],
      "name": "withdrawTreasuryFees",
      "outputs": [],
      "stateMutability": "nonpayable",
      "type": "function"
    },
    {
      "stateMutability": "payable",
      "type": "receive"
    }
  ],
  "bytecode": "0x60e060405260016015553480156200001657600080fd5b50604051620041393803806200413983398101604081905262000039916200045f565b6040518060400160405280600e81526020016d1158dbd11bdb985d1a5bdb93919560921b81525060405180604001604052806006815260200165115113d3919560d21b81525081600090816200009091906200063d565b5060016200009f82826200063d565b50506007805460ff19169055506001600855620000bc33620002b2565b6001600160a01b038416620001185760405162461bcd60e51b815260206004820152601960248201527f496e76616c69642045434f20746f6b656e20616464726573730000000000000060448201526064015b60405180910390fd5b6001600160a01b038316620001705760405162461bcd60e51b815260206004820152601860248201527f496e76616c6964204d756c74695369672061646472657373000000000000000060448201526064016200010f565b6001600160a01b038216620001c85760405162461bcd60e51b815260206004820152601860248201527f496e76616c69642074726561737572792061646472657373000000000000000060448201526064016200010f565b6001600160a01b0380851660805283811660a052821660c052620001f0601182600462000304565b5050600d60205250507f81955a0a11e65eac625c29e8882660bae4e165a75d72780094acae8ece9a29ee8054600160ff1991821681179092557ffd54ff1ed53f34a900b24c5ba64f85761163b5d82d98a47b9bd80e45466993c580548216831790557f10a81eed9d63d16face5e76357905348e6253d3394086026bb2bf2145d7cc249805482168317905560036000527f26b4a10d0f0b04925c23bd4480ee147c916e5e87a7d68206a533dad160ac81e2805490911690911790555062000709565b600980546001600160a01b038381166001600160a01b0319831681179093556040519116919082907f8be0079c531659141344cd1fd0a4f28419497f9722a3daafe3b4186f6b6457e090600090a35050565b826004810192821562000342579160200282015b828111156200034257825182906200033190826200063d565b509160200191906001019062000318565b506200035092915062000354565b5090565b80821115620003505760006200036b828262000375565b5060010162000354565b5080546200038390620005ae565b6000825580601f1062000394575050565b601f016020900490600052602060002090810190620003b49190620003b7565b50565b5b80821115620003505760008155600101620003b8565b80516001600160a01b0381168114620003e657600080fd5b919050565b634e487b7160e01b600052604160045260246000fd5b604051608081016001600160401b0381118282101715620004265762000426620003eb565b60405290565b604051601f8201601f191681016001600160401b0381118282101715620004575762000457620003eb565b604052919050565b600080600080608085870312156200047657600080fd5b6200048185620003ce565b9350602062000492818701620003ce565b9350620004a260408701620003ce565b60608701519093506001600160401b0380821115620004c057600080fd5b818801915088601f830112620004d557600080fd5b620004df62000401565b80608084018b811115620004f257600080fd5b845b818110156200059b578051858111156200050e5760008081fd5b8601601f81018e13620005215760008081fd5b805186811115620005365762000536620003eb565b6200054a601f8201601f19168a016200042c565b8181528f8a838501011115620005605760008081fd5b60005b8281101562000580578381018b01518282018c01528a0162000563565b5060009181018a0191909152855250928601928601620004f4565b5050809550505050505092959194509250565b600181811c90821680620005c357607f821691505b602082108103620005e457634e487b7160e01b600052602260045260246000fd5b50919050565b601f8211156200063857600081815260208120601f850160051c81016020861015620006135750805b601f850160051c820191505b8181101562000634578281556001016200061f565b5050505b505050565b81516001600160401b03811115620006595762000659620003eb565b62000671816200066a8454620005ae565b84620005ea565b602080601f831160018114620006a95760008415620006905750858301515b600019600386901b1c1916600185901b17855562000634565b600085815260208120601f198616915b82811015620006da57888601518255948401946001909101908401620006b9565b5085821015620006f95787850151600019600388901b60f8161c191681555b5050505050600190811b01905550565b60805160a05160c0516139c162000778600039600061086801526000818161064f01528181610bc5015281816115c2015281816116f4015281816117ba01526119aa01526000818161077c015281816113f00152818161152401528181612236015261236e01526139c16000f3fe6080604052600436106102805760003560e01c806361b8ce8c1161014f578063a22cb465116100c1578063db45810e1161007a578063db45810e146108d3578063de2ed893146108ee578063e985e9c514610904578063eb564d3514610924578063ec37d25914610952578063f2fde38b14610972576102ed565b8063a22cb46514610816578063b88d4fde14610836578063c5f956af14610856578063c87b56dd1461088a578063ca8b0309146108aa578063d73792a9146108bd576102ed565b80638da5cb5b116101135780638da5cb5b1461074c57806394e63e631461076a57806395d89b411461079e578063981bb4ce146107b35780639b5655dc146107e35780639c3db870146107f6576102ed565b806361b8ce8c146106b45780636352211e146106ca57806370a08231146106ea578063715018a61461070a5780637813d7821461071f576102ed565b806324500a84116101f35780634857317e116101ac5780634857317e1461060b5780634a4e3bd5146106285780634b8feb4f1461063d57806351858e27146106715780635c975abb1461068657806360c6d8ae1461069e576102ed565b806324500a8414610545578063248ec326146105655780632eade7e81461058257806342842e0e146105b857806346a6800a146105d85780634815fac6146105eb576102ed565b8063095ea7b311610245578063095ea7b3146104855780630cbab4f7146104a55780630df279d5146104da57806315548232146104fa578063200e0ac81461051057806323b872dd14610525576102ed565b80628d14b61461038e57806301ffc9a7146103ce57806306fdde03146103fe578063081812fc146104205780630852284714610458576102ed565b366102ed5734156102eb57336001600160a01b031660008051602061396c8339815191526040516102e2906020808252601c908201527f44697265637420455448207472616e7366657220726563656976656400000000604082015260600190565b60405180910390a25b005b336001600160a01b031660008051602061396c8339815191526040516103449060208082526018908201527f46616c6c6261636b2066756e6374696f6e2063616c6c65640000000000000000604082015260600190565b60405180910390a260405162461bcd60e51b8152602060048201526012602482015271119d5b98dd1a5bdb881b9bdd08199bdd5b9960721b60448201526064015b60405180910390fd5b34801561039a57600080fd5b506103bb6103a9366004613127565b600e6020526000908152604090205481565b6040519081526020015b60405180910390f35b3480156103da57600080fd5b506103ee6103e936600461315a565b610992565b60405190151581526020016103c5565b34801561040a57600080fd5b506104136109bd565b6040516103c591906131c7565b34801561042c57600080fd5b5061044061043b3660046131da565b610a4f565b6040516001600160a01b0390911681526020016103c5565b34801561046457600080fd5b506103bb610473366004613127565b600f6020526000908152604090205481565b34801561049157600080fd5b506102eb6104a03660046131f3565b610a76565b3480156104b157600080fd5b506104c56104c03660046131da565b610b8b565b604080519283526020830191909152016103c5565b3480156104e657600080fd5b506102eb6104f5366004613233565b610bba565b34801561050657600080fd5b506103bb61012c81565b34801561051c57600080fd5b506103bb603c81565b34801561053157600080fd5b506102eb61054036600461326a565b610dc0565b34801561055157600080fd5b506103ee610560366004613127565b610df1565b34801561057157600080fd5b506103bb683635c9adc5dea0000081565b34801561058e57600080fd5b5061044061059d3660046132ab565b600a602052600090815260409020546001600160a01b031681565b3480156105c457600080fd5b506102eb6105d336600461326a565b610e1f565b6102eb6105e636600461330f565b610e3a565b3480156105f757600080fd5b506102eb610606366004613385565b6115b7565b34801561061757600080fd5b506103bb68056bc75e2d6310000081565b34801561063457600080fd5b506102eb6116e9565b34801561064957600080fd5b506104407f000000000000000000000000000000000000000000000000000000000000000081565b34801561067d57600080fd5b506102eb6117af565b34801561069257600080fd5b5060075460ff166103ee565b3480156106aa57600080fd5b506103bb60175481565b3480156106c057600080fd5b506103bb60155481565b3480156106d657600080fd5b506104406106e53660046131da565b611896565b3480156106f657600080fd5b506103bb610705366004613127565b6118f6565b34801561071657600080fd5b506102eb61197c565b34801561072b57600080fd5b506103bb61073a366004613127565b60106020526000908152604090205481565b34801561075857600080fd5b506009546001600160a01b0316610440565b34801561077657600080fd5b506104407f000000000000000000000000000000000000000000000000000000000000000081565b3480156107aa57600080fd5b50610413611990565b3480156107bf57600080fd5b506103ee6107ce3660046132ab565b600d6020526000908152604090205460ff1681565b3480156107ef57600080fd5b50476103bb565b34801561080257600080fd5b506102eb6108113660046131f3565b61199f565b34801561082257600080fd5b506102eb6108313660046133b8565b611be3565b34801561084257600080fd5b506102eb6108513660046133ec565b611bee565b34801561086257600080fd5b506104407f000000000000000000000000000000000000000000000000000000000000000081565b34801561089657600080fd5b506104136108a53660046131da565b611c20565b6102eb6108b83660046134cc565b611d30565b3480156108c957600080fd5b506103bb61271081565b3480156108df57600080fd5b506103bb66038d7ea4c6800081565b3480156108fa57600080fd5b506103bb60165481565b34801561091057600080fd5b506103ee61091f36600461351f565b6123fb565b34801561093057600080fd5b5061094461093f3660046131da565b612429565b6040516103c5929190613553565b34801561095e57600080fd5b506103bb61096d366004613127565b6124ab565b34801561097e57600080fd5b506102eb61098d366004613127565b612513565b60006001600160e01b03198216632483248360e11b14806109b757506109b78261258c565b92915050565b6060600080546109cc9061357f565b80601f01602080910402602001604051908101604052809291908181526020018280546109f89061357f565b8015610a455780601f10610a1a57610100808354040283529160200191610a45565b820191906000526020600020905b815481529060010190602001808311610a2857829003601f168201915b5050505050905090565b6000610a5a826125dc565b506000908152600460205260409020546001600160a01b031690565b6000610a8182611896565b9050806001600160a01b0316836001600160a01b031603610aee5760405162461bcd60e51b815260206004820152602160248201527f4552433732313a20617070726f76616c20746f2063757272656e74206f776e656044820152603960f91b6064820152608401610385565b336001600160a01b0382161480610b0a5750610b0a81336123fb565b610b7c5760405162461bcd60e51b815260206004820152603d60248201527f4552433732313a20617070726f76652063616c6c6572206973206e6f7420746f60448201527f6b656e206f776e6572206f7220617070726f76656420666f7220616c6c0000006064820152608401610385565b610b86838361263b565b505050565b600080612710610b9d61012c856135cf565b610ba791906135e6565b9150610bb38284613608565b9050915091565b336001600160a01b037f0000000000000000000000000000000000000000000000000000000000000000161480610bfb57506009546001600160a01b031633145b610c175760405162461bcd60e51b81526004016103859061361b565b6001600160a01b038116610c6d5760405162461bcd60e51b815260206004820152601a60248201527f496e76616c696420666f756e646174696f6e20616464726573730000000000006044820152606401610385565b306001600160a01b03821603610cc55760405162461bcd60e51b815260206004820152601a60248201527f43616e6e6f7420626520636f6e747261637420616464726573730000000000006044820152606401610385565b6000600a6000846003811115610cdd57610cdd61353d565b6003811115610cee57610cee61353d565b815260208101919091526040016000908120546001600160a01b031691508290600a90856003811115610d2357610d2361353d565b6003811115610d3457610d3461353d565b815260200190815260200160002060006101000a8154816001600160a01b0302191690836001600160a01b03160217905550826003811115610d7857610d7861353d565b604080516001600160a01b038085168252851660208201527ffedb8839f59d9f5256ddd1dd53196e7de466211f1bad7af4228fa431e2a0df42910160405180910390a2505050565b610dca33826126a9565b610de65760405162461bcd60e51b81526004016103859061365f565b610b86838383612707565b6001600160a01b0381166000908152600e6020526040812054610e1690603c906136ac565b42101592915050565b610b8683838360405180602001604052806000815250611bee565b610e4261286b565b610e4a6128b1565b336000908152600e6020526040902054610e6690603c906136ac565b421015610eb55760405162461bcd60e51b815260206004820152601e60248201527f52617465206c696d69743a20546f6f206d616e7920646f6e6174696f6e7300006044820152606401610385565b336000908152601060205260409020543490610ed490620151806136ac565b4210610efa57336000908152600f60209081526040808320839055601090915290204290555b336000908152600f6020526040902054683635c9adc5dea0000090610f209083906136ac565b1115610f655760405162461bcd60e51b815260206004820152601460248201527311185a5b1e481b1a5b5a5d08195e18d95959195960621b6044820152606401610385565b6001600160a01b038216610fb15760405162461bcd60e51b8152602060048201526013602482015272496e76616c69642062656e656669636961727960681b6044820152606401610385565b66038d7ea4c680003410156110015760405162461bcd60e51b8152602060048201526016602482015275446f6e6174696f6e2062656c6f77206d696e696d756d60501b6044820152606401610385565b68056bc75e2d631000003411156110555760405162461bcd60e51b8152602060048201526018602482015277446f6e6174696f6e2065786365656473206d6178696d756d60401b6044820152606401610385565b600d600086600381111561106b5761106b61353d565b600381111561107c5761107c61353d565b815260208101919091526040016000205460ff166110d65760405162461bcd60e51b8152602060048201526017602482015276119bdd5b99185d1a5bdb881b9bdd081d995c9a599a5959604a1b6044820152606401610385565b60006127106110e761012c346135cf565b6110f191906135e6565b905060006110ff8234613608565b336000908152600e60209081526040808320429055600f9091528120805492935034929091906111309084906136ac565b92505081905550806016600082825461114991906136ac565b92505081905550816017600082825461116291906136ac565b9091555060009050600a8189600381111561117f5761117f61353d565b60038111156111905761119061353d565b81526020810191909152604001600020546001600160a01b03169050806111f95760405162461bcd60e51b815260206004820152601a60248201527f466f756e646174696f6e2061646472657373206e6f74207365740000000000006044820152606401610385565b6000816001600160a01b0316836108fc90604051600060405180830381858888f193505050503d806000811461124b576040519150601f19603f3d011682016040523d82523d6000602084013e611250565b606091505b50509050806112a15760405162461bcd60e51b815260206004820152601a60248201527f466f756e646174696f6e207472616e73666572206661696c65640000000000006044820152606401610385565b60158054600091826112b2836136bf565b909155506000818152600b6020526040902080549192508b9160ff191660018360038111156112e3576112e361353d565b02179055506000818152600c60205260409020849055611303878261290a565b6113ba8160118c600381111561131b5761131b61353d565b6004811061132b5761132b6136d8565b0180546113379061357f565b80601f01602080910402602001604051908101604052809291908181526020018280546113639061357f565b80156113b05780601f10611385576101008083540402835291602001916113b0565b820191906000526020600020905b81548152906001019060200180831161139357829003601f168201915b5050505050612924565b60006113c785600a6135cf565b604051633c37699760e21b81526001600160a01b038a81166004830152602482018390529192507f00000000000000000000000000000000000000000000000000000000000000009091169063f0dda65c90604401600060405180830381600087803b15801561143657600080fd5b505af115801561144a573d6000803e3d6000fd5b50505050876001600160a01b03168b600381111561146a5761146a61353d565b7f67c352d9d4655f7c490cc59a09b0d9d254a2cdbfc6f6b5f91c539573bb1327dc878d8d60405161149d939291906136ee565b60405180910390a3604080518781526020810187905233917fdb40823673150fd23805eb48a4a6dfc80faab80eedffad0bc22036349ced5e6b910160405180910390a26040516370a0823160e01b81526001600160a01b03808a1660048301819052917fe45c01138e54bb610afd62c8b625077319978702155f247426c51b533c04c5d2917f000000000000000000000000000000000000000000000000000000000000000016906370a0823190602401602060405180830381865afa15801561156b573d6000803e3d6000fd5b505050506040513d601f19601f8201168201806040525081019061158f9190613724565b60405190815260200160405180910390a2505050505050506115b16001600855565b50505050565b336001600160a01b037f00000000000000000000000000000000000000000000000000000000000000001614806115f857506009546001600160a01b031633145b6116145760405162461bcd60e51b81526004016103859061361b565b80600d600084600381111561162b5761162b61353d565b600381111561163c5761163c61353d565b81526020810191909152604001600020805460ff19169115159190911790553360008051602061396c833981519152826116a35760405180604001604052806015815260200174119bdd5b99185d1a5bdb881d5b9d995c9a599a5959605a1b8152506116d0565b60405180604001604052806013815260200172119bdd5b99185d1a5bdb881d995c9a599a5959606a1b8152505b6040516116dd91906131c7565b60405180910390a25050565b336001600160a01b037f000000000000000000000000000000000000000000000000000000000000000016148061172a57506009546001600160a01b031633145b6117465760405162461bcd60e51b81526004016103859061361b565b61174e6129ef565b336001600160a01b031660008051602061396c8339815191526040516117a5906020808252601b908201527f456d657267656e63792070617573652064656163746976617465640000000000604082015260600190565b60405180910390a2565b336001600160a01b037f00000000000000000000000000000000000000000000000000000000000000001614806117f057506009546001600160a01b031633145b61180c5760405162461bcd60e51b81526004016103859061361b565b611814612a41565b60405133907f7c83004a7e59a8ea03b200186c4dda29a4e144d9844d63dbc1a09acf7dfcd48590600090a2336001600160a01b031660008051602061396c8339815191526040516117a59060208082526019908201527f456d657267656e63792070617573652061637469766174656400000000000000604082015260600190565b6000818152600260205260408120546001600160a01b0316806109b75760405162461bcd60e51b8152602060048201526018602482015277115490cdcc8c4e881a5b9d985b1a59081d1bdad95b88125160421b6044820152606401610385565b60006001600160a01b0382166119605760405162461bcd60e51b815260206004820152602960248201527f4552433732313a2061646472657373207a65726f206973206e6f7420612076616044820152683634b21037bbb732b960b91b6064820152608401610385565b506001600160a01b031660009081526003602052604090205490565b611984612a7e565b61198e6000612ad8565b565b6060600180546109cc9061357f565b336001600160a01b037f00000000000000000000000000000000000000000000000000000000000000001614806119e057506009546001600160a01b031633145b6119fc5760405162461bcd60e51b81526004016103859061361b565b611a046128b1565b6001600160a01b038216611a4e5760405162461bcd60e51b8152602060048201526011602482015270125b9d985b1a59081c9958da5c1a595b9d607a1b6044820152606401610385565b60008111611a9e5760405162461bcd60e51b815260206004820152601760248201527f416d6f756e74206d75737420626520706f7369746976650000000000000000006044820152606401610385565b80471015611aee5760405162461bcd60e51b815260206004820152601d60248201527f496e73756666696369656e7420636f6e74726163742062616c616e63650000006044820152606401610385565b6000826001600160a01b03168260405160006040518083038185875af1925050503d8060008114611b3b576040519150601f19603f3d011682016040523d82523d6000602084013e611b40565b606091505b5050905080611b915760405162461bcd60e51b815260206004820152601a60248201527f5472656173757279207769746864726177616c206661696c65640000000000006044820152606401610385565b826001600160a01b03167f233c84dc0c19fbf51f9fa92214ffd8a59f512e0098bff5827455d02e401221c083604051611bcc91815260200190565b60405180910390a250611bdf6001600855565b5050565b611bdf338383612b2a565b611bf833836126a9565b611c145760405162461bcd60e51b81526004016103859061365f565b6115b184848484612bf8565b6060611c2b826125dc565b60008281526006602052604081208054611c449061357f565b80601f0160208091040260200160405190810160405280929190818152602001828054611c709061357f565b8015611cbd5780601f10611c9257610100808354040283529160200191611cbd565b820191906000526020600020905b815481529060010190602001808311611ca057829003601f168201915b505050505090506000611cdb60408051602081019091526000815290565b90508051600003611ced575092915050565b815115611d1f578082604051602001611d0792919061373d565b60405160208183030381529060405292505050919050565b611d2884612c2b565b949350505050565b611d3861286b565b611d406128b1565b336000908152600e6020526040902054611d5c90603c906136ac565b421015611dab5760405162461bcd60e51b815260206004820152601e60248201527f52617465206c696d69743a20546f6f206d616e7920646f6e6174696f6e7300006044820152606401610385565b336000908152601060205260409020543490611dca90620151806136ac565b4210611df057336000908152600f60209081526040808320839055601090915290204290555b336000908152600f6020526040902054683635c9adc5dea0000090611e169083906136ac565b1115611e5b5760405162461bcd60e51b815260206004820152601460248201527311185a5b1e481b1a5b5a5d08195e18d95959195960621b6044820152606401610385565b66038d7ea4c68000341015611eab5760405162461bcd60e51b8152602060048201526016602482015275446f6e6174696f6e2062656c6f77206d696e696d756d60501b6044820152606401610385565b68056bc75e2d63100000341115611eff5760405162461bcd60e51b8152602060048201526018602482015277446f6e6174696f6e2065786365656473206d6178696d756d60401b6044820152606401610385565b600d6000856003811115611f1557611f1561353d565b6003811115611f2657611f2661353d565b815260208101919091526040016000205460ff16611f805760405162461bcd60e51b8152602060048201526017602482015276119bdd5b99185d1a5bdb881b9bdd081d995c9a599a5959604a1b6044820152606401610385565b6101f4821115611fc55760405162461bcd60e51b815260206004820152601060248201526f4d65737361676520746f6f206c6f6e6760801b6044820152606401610385565b6000612710611fd661012c346135cf565b611fe091906135e6565b90506000611fee8234613608565b336000908152600e60209081526040808320429055600f90915281208054929350349290919061201f9084906136ac565b92505081905550806016600082825461203891906136ac565b92505081905550816017600082825461205191906136ac565b9091555060009050600a8188600381111561206e5761206e61353d565b600381111561207f5761207f61353d565b81526020810191909152604001600020546001600160a01b03169050806120e85760405162461bcd60e51b815260206004820152601a60248201527f466f756e646174696f6e2061646472657373206e6f74207365740000000000006044820152606401610385565b6000816001600160a01b0316836108fc90604051600060405180830381858888f193505050503d806000811461213a576040519150601f19603f3d011682016040523d82523d6000602084013e61213f565b606091505b50509050806121905760405162461bcd60e51b815260206004820152601a60248201527f466f756e646174696f6e207472616e73666572206661696c65640000000000006044820152606401610385565b60158054600091826121a1836136bf565b909155506000818152600b6020526040902080549192508a9160ff191660018360038111156121d2576121d261353d565b02179055506000818152600c602052604090208490556121f2338261290a565b61220a8160118b600381111561131b5761131b61353d565b600061221785600a6135cf565b604051633c37699760e21b8152336004820152602481018290529091507f00000000000000000000000000000000000000000000000000000000000000006001600160a01b03169063f0dda65c90604401600060405180830381600087803b15801561228257600080fd5b505af1158015612296573d6000803e3d6000fd5b50505050336001600160a01b03168a60038111156122b6576122b661353d565b7f67c352d9d4655f7c490cc59a09b0d9d254a2cdbfc6f6b5f91c539573bb1327dc878c8c6040516122e9939291906136ee565b60405180910390a3604080518781526020810187905233917fdb40823673150fd23805eb48a4a6dfc80faab80eedffad0bc22036349ced5e6b910160405180910390a26040516370a0823160e01b81523360048201819052907fe45c01138e54bb610afd62c8b625077319978702155f247426c51b533c04c5d2906001600160a01b037f000000000000000000000000000000000000000000000000000000000000000016906370a0823190602401602060405180830381865afa1580156123b5573d6000803e3d6000fd5b505050506040513d601f19601f820116820180604052508101906123d99190613724565b60405190815260200160405180910390a250505050505050610b866001600855565b6001600160a01b03918216600090815260056020908152604080832093909416825291909152205460ff1690565b60008181526002602052604081205481906001600160a01b03166124865760405162461bcd60e51b8152602060048201526014602482015273151bdad95b88191bd95cc81b9bdd08195e1a5cdd60621b6044820152606401610385565b50506000908152600b6020908152604080832054600c9092529091205460ff90911691565b6001600160a01b0381166000908152601060205260408120546124d190620151806136ac565b42106124e75750683635c9adc5dea00000919050565b6001600160a01b0382166000908152600f60205260409020546109b790683635c9adc5dea00000613608565b61251b612a7e565b6001600160a01b0381166125805760405162461bcd60e51b815260206004820152602660248201527f4f776e61626c653a206e6577206f776e657220697320746865207a65726f206160448201526564647265737360d01b6064820152608401610385565b61258981612ad8565b50565b60006001600160e01b031982166380ac58cd60e01b14806125bd57506001600160e01b03198216635b5e139f60e01b145b806109b757506301ffc9a760e01b6001600160e01b03198316146109b7565b6000818152600260205260409020546001600160a01b03166125895760405162461bcd60e51b8152602060048201526018602482015277115490cdcc8c4e881a5b9d985b1a59081d1bdad95b88125160421b6044820152606401610385565b600081815260046020526040902080546001600160a01b0319166001600160a01b038416908117909155819061267082611896565b6001600160a01b03167f8c5be1e5ebec7d5bd14f71427d1e84f3dd0314c0f7b2291e5b200ac8c7c3b92560405160405180910390a45050565b6000806126b583611896565b9050806001600160a01b0316846001600160a01b031614806126dc57506126dc81856123fb565b80611d285750836001600160a01b03166126f584610a4f565b6001600160a01b031614949350505050565b826001600160a01b031661271a82611896565b6001600160a01b0316146127405760405162461bcd60e51b81526004016103859061376c565b6001600160a01b0382166127a25760405162461bcd60e51b8152602060048201526024808201527f4552433732313a207472616e7366657220746f20746865207a65726f206164646044820152637265737360e01b6064820152608401610385565b826001600160a01b03166127b582611896565b6001600160a01b0316146127db5760405162461bcd60e51b81526004016103859061376c565b600081815260046020908152604080832080546001600160a01b03199081169091556001600160a01b0387811680865260038552838620805460001901905590871680865283862080546001019055868652600290945282852080549092168417909155905184937fddf252ad1be2c89b69c2b068fc378daa952ba7f163c4a11628f55a4df523b3ef91a4505050565b60075460ff161561198e5760405162461bcd60e51b815260206004820152601060248201526f14185d5cd8589b194e881c185d5cd95960821b6044820152606401610385565b6002600854036129035760405162461bcd60e51b815260206004820152601f60248201527f5265656e7472616e637947756172643a207265656e7472616e742063616c6c006044820152606401610385565b6002600855565b611bdf828260405180602001604052806000815250612c9f565b6000828152600260205260409020546001600160a01b031661299f5760405162461bcd60e51b815260206004820152602e60248201527f45524337323155524953746f726167653a2055524920736574206f66206e6f6e60448201526d32bc34b9ba32b73a103a37b5b2b760911b6064820152608401610385565b60008281526006602052604090206129b782826137ff565b506040518281527ff8e1a15aba9398e019f0b49df1a4fde98ee17ae345cb5f6b5e2c27f5033e8ce79060200160405180910390a15050565b6129f7612cd2565b6007805460ff191690557f5db9ee0a495bf2e6ff9c91a7834c1ba4fdd244a5e8aa4e537bd38aeae4b073aa335b6040516001600160a01b03909116815260200160405180910390a1565b612a4961286b565b6007805460ff191660011790557f62e78cea01bee320cd4e420270b5ea74000d11b0c9f74754ebdbfc544b05a258612a243390565b6009546001600160a01b0316331461198e5760405162461bcd60e51b815260206004820181905260248201527f4f776e61626c653a2063616c6c6572206973206e6f7420746865206f776e65726044820152606401610385565b600980546001600160a01b038381166001600160a01b0319831681179093556040519116919082907f8be0079c531659141344cd1fd0a4f28419497f9722a3daafe3b4186f6b6457e090600090a35050565b816001600160a01b0316836001600160a01b031603612b8b5760405162461bcd60e51b815260206004820152601960248201527f4552433732313a20617070726f766520746f2063616c6c6572000000000000006044820152606401610385565b6001600160a01b03838116600081815260056020908152604080832094871680845294825291829020805460ff191686151590811790915591519182527f17307eab39ab6107e8899845ad3d59bd9653f200f220920489ca2b5937696c31910160405180910390a3505050565b612c03848484612707565b612c0f84848484612d1b565b6115b15760405162461bcd60e51b8152600401610385906138bf565b6060612c36826125dc565b6000612c4d60408051602081019091526000815290565b90506000815111612c6d5760405180602001604052806000815250612c98565b80612c7784612e1c565b604051602001612c8892919061373d565b6040516020818303038152906040525b9392505050565b612ca98383612eaf565b612cb66000848484612d1b565b610b865760405162461bcd60e51b8152600401610385906138bf565b60075460ff1661198e5760405162461bcd60e51b815260206004820152601460248201527314185d5cd8589b194e881b9bdd081c185d5cd95960621b6044820152606401610385565b60006001600160a01b0384163b15612e1157604051630a85bd0160e11b81526001600160a01b0385169063150b7a0290612d5f903390899088908890600401613911565b6020604051808303816000875af1925050508015612d9a575060408051601f3d908101601f19168201909252612d979181019061394e565b60015b612df7573d808015612dc8576040519150601f19603f3d011682016040523d82523d6000602084013e612dcd565b606091505b508051600003612def5760405162461bcd60e51b8152600401610385906138bf565b805181602001fd5b6001600160e01b031916630a85bd0160e11b149050611d28565b506001949350505050565b60606000612e298361303a565b600101905060008167ffffffffffffffff811115612e4957612e496133d6565b6040519080825280601f01601f191660200182016040528015612e73576020820181803683370190505b5090508181016020015b600019016f181899199a1a9b1b9c1cb0b131b232b360811b600a86061a8153600a8504945084612e7d57509392505050565b6001600160a01b038216612f055760405162461bcd60e51b815260206004820181905260248201527f4552433732313a206d696e7420746f20746865207a65726f20616464726573736044820152606401610385565b6000818152600260205260409020546001600160a01b031615612f6a5760405162461bcd60e51b815260206004820152601c60248201527f4552433732313a20746f6b656e20616c7265616479206d696e746564000000006044820152606401610385565b6000818152600260205260409020546001600160a01b031615612fcf5760405162461bcd60e51b815260206004820152601c60248201527f4552433732313a20746f6b656e20616c7265616479206d696e746564000000006044820152606401610385565b6001600160a01b038216600081815260036020908152604080832080546001019055848352600290915280822080546001600160a01b0319168417905551839291907fddf252ad1be2c89b69c2b068fc378daa952ba7f163c4a11628f55a4df523b3ef908290a45050565b60008072184f03e93ff9f4daa797ed6e38ed64bf6a1f0160401b83106130795772184f03e93ff9f4daa797ed6e38ed64bf6a1f0160401b830492506040015b6d04ee2d6d415b85acef810000000083106130a5576d04ee2d6d415b85acef8100000000830492506020015b662386f26fc1000083106130c357662386f26fc10000830492506010015b6305f5e10083106130db576305f5e100830492506008015b61271083106130ef57612710830492506004015b60648310613101576064830492506002015b600a83106109b75760010192915050565b6001600160a01b038116811461258957600080fd5b60006020828403121561313957600080fd5b8135612c9881613112565b6001600160e01b03198116811461258957600080fd5b60006020828403121561316c57600080fd5b8135612c9881613144565b60005b8381101561319257818101518382015260200161317a565b50506000910152565b600081518084526131b3816020860160208601613177565b601f01601f19169290920160200192915050565b602081526000612c98602083018461319b565b6000602082840312156131ec57600080fd5b5035919050565b6000806040838503121561320657600080fd5b823561321181613112565b946020939093013593505050565b80356004811061322e57600080fd5b919050565b6000806040838503121561324657600080fd5b61324f8361321f565b9150602083013561325f81613112565b809150509250929050565b60008060006060848603121561327f57600080fd5b833561328a81613112565b9250602084013561329a81613112565b929592945050506040919091013590565b6000602082840312156132bd57600080fd5b612c988261321f565b60008083601f8401126132d857600080fd5b50813567ffffffffffffffff8111156132f057600080fd5b60208301915083602082850101111561330857600080fd5b9250929050565b6000806000806060858703121561332557600080fd5b61332e8561321f565b9350602085013567ffffffffffffffff81111561334a57600080fd5b613356878288016132c6565b909450925050604085013561336a81613112565b939692955090935050565b8035801515811461322e57600080fd5b6000806040838503121561339857600080fd5b6133a18361321f565b91506133af60208401613375565b90509250929050565b600080604083850312156133cb57600080fd5b82356133a181613112565b634e487b7160e01b600052604160045260246000fd5b6000806000806080858703121561340257600080fd5b843561340d81613112565b9350602085013561341d81613112565b925060408501359150606085013567ffffffffffffffff8082111561344157600080fd5b818701915087601f83011261345557600080fd5b813581811115613467576134676133d6565b604051601f8201601f19908116603f0116810190838211818310171561348f5761348f6133d6565b816040528281528a60208487010111156134a857600080fd5b82602086016020830137600060208483010152809550505050505092959194509250565b6000806000604084860312156134e157600080fd5b6134ea8461321f565b9250602084013567ffffffffffffffff81111561350657600080fd5b613512868287016132c6565b9497909650939450505050565b6000806040838503121561353257600080fd5b823561324f81613112565b634e487b7160e01b600052602160045260246000fd5b604081016004841061357557634e487b7160e01b600052602160045260246000fd5b9281526020015290565b600181811c9082168061359357607f821691505b6020821081036135b357634e487b7160e01b600052602260045260246000fd5b50919050565b634e487b7160e01b600052601160045260246000fd5b80820281158282048414176109b7576109b76135b9565b60008261360357634e487b7160e01b600052601260045260246000fd5b500490565b818103818111156109b7576109b76135b9565b60208082526024908201527f556e617574686f72697a65643a204d756c7469536967206f72204f776e6572206040820152636f6e6c7960e01b606082015260800190565b6020808252602d908201527f4552433732313a2063616c6c6572206973206e6f7420746f6b656e206f776e6560408201526c1c881bdc88185c1c1c9bdd9959609a1b606082015260800190565b808201808211156109b7576109b76135b9565b6000600182016136d1576136d16135b9565b5060010190565b634e487b7160e01b600052603260045260246000fd5b83815260406020820152816040820152818360608301376000818301606090810191909152601f909201601f1916010192915050565b60006020828403121561373657600080fd5b5051919050565b6000835161374f818460208801613177565b835190830190613763818360208801613177565b01949350505050565b60208082526025908201527f4552433732313a207472616e736665722066726f6d20696e636f72726563742060408201526437bbb732b960d91b606082015260800190565b601f821115610b8657600081815260208120601f850160051c810160208610156137d85750805b601f850160051c820191505b818110156137f7578281556001016137e4565b505050505050565b815167ffffffffffffffff811115613819576138196133d6565b61382d81613827845461357f565b846137b1565b602080601f831160018114613862576000841561384a5750858301515b600019600386901b1c1916600185901b1785556137f7565b600085815260208120601f198616915b8281101561389157888601518255948401946001909101908401613872565b50858210156138af5787850151600019600388901b60f8161c191681555b5050505050600190811b01905550565b60208082526032908201527f4552433732313a207472616e7366657220746f206e6f6e20455243373231526560408201527131b2b4bb32b91034b6b83632b6b2b73a32b960711b606082015260800190565b6001600160a01b03858116825284166020820152604081018390526080606082018190526000906139449083018461319b565b9695505050505050565b60006020828403121561396057600080fd5b8151612c988161314456fe18bfaf793d95f68369c4f031c6a87c07c70a119207277684b0a07002d583384fa2646970667358221220da50bf54a6f0230ffa17b3edabd8dfd5efcc4a8302fc8c7f63dd4092b2efff6964736f6c63430008130033",
  "linkReferences": {},
  "deployedLinkReferences": {}
}