{
  "_format": "hh-sol-artifact-1",
  "contractName": "EcoCoin",
  "sourceName": "contracts/EcoCoin.sol",
  "abi": [
    {
      "inputs": [
        {
          "internalType": "uint256",
          "name": "_maxSupply",
          "type": "uint256"
        }
      ],
      "stateMutability": "nonpayable",
      "type": "constructor"
    },
    {
      "anonymous": false,
      "inputs": [
        {
          "indexed": true,
          "internalType": "address",
          "name": "owner",
          "type": "address"
        },
        {
          "indexed": true,
          "internalType": "address",
          "name": "spender",
          "type": "address"
        },
        {
          "indexed": false,
          "internalType": "uint256",
          "name": "value",
          "type": "uint256"
        }
      ],
      "name": "Approval",
      "type": "event"
    },
    {
      "anonymous": false,
      "inputs": [
        {
          "indexed": true,
          "internalType": "address",
          "name": "account",
          "type": "address"
        }
      ],
      "name": "EmergencyPause",
      "type": "event"
    },
    {
      "anonymous": false,
      "inputs": [
        {
          "indexed": true,
          "internalType": "address",
          "name": "account",
          "type": "address"
        }
      ],
      "name": "EmergencyUnpause",
      "type": "event"
    },
    {
      "anonymous": false,
      "inputs": [
        {
          "indexed": true,
          "internalType": "address",
          "name": "minter",
          "type": "address"
        }
      ],
      "name": "MinterAdded",
      "type": "event"
    },
    {
      "anonymous": false,
      "inputs": [
        {
          "indexed": true,
          "internalType": "address",
          "name": "minter",
          "type": "address"
        }
      ],
      "name": "MinterRemoved",
      "type": "event"
    },
    {
      "anonymous": false,
      "inputs": [
        {
          "indexed": true,
          "internalType": "address",
          "name": "oldWallet",
          "type": "address"
        },
        {
          "indexed": true,
          "internalType": "address",
          "name": "newWallet",
          "type": "address"
        }
      ],
      "name": "MultiSigWalletUpdated",
      "type": "event"
    },
    {
      "anonymous": false,
      "inputs": [
        {
          "indexed": true,
          "internalType": "address",
          "name": "previousOwner",
          "type": "address"
        },
        {
          "indexed": true,
          "internalType": "address",
          "name": "newOwner",
          "type": "address"
        }
      ],
      "name": "OwnershipTransferred",
      "type": "event"
    },
    {
      "anonymous": false,
      "inputs": [
        {
          "indexed": false,
          "internalType": "address",
          "name": "account",
          "type": "address"
        }
      ],
      "name": "Paused",
      "type": "event"
    },
    {
      "anonymous": false,
      "inputs": [
        {
          "indexed": true,
          "internalType": "address",
          "name": "from",
          "type": "address"
        },
        {
          "indexed": true,
          "internalType": "address",
          "name": "to",
          "type": "address"
        },
        {
          "indexed": false,
          "internalType": "uint256",
          "name": "value",
          "type": "uint256"
        }
      ],
      "name": "Transfer",
      "type": "event"
    },
    {
      "anonymous": false,
      "inputs": [
        {
          "indexed": false,
          "internalType": "address",
          "name": "account",
          "type": "address"
        }
      ],
      "name": "Unpaused",
      "type": "event"
    },
    {
      "inputs": [
        {
          "internalType": "address",
          "name": "_minter",
          "type": "address"
        }
      ],
      "name": "addMinter",
      "outputs": [],
      "stateMutability": "nonpayable",
      "type": "function"
    },
    {
      "inputs": [
        {
          "internalType": "address",
          "name": "owner",
          "type": "address"
        },
        {
          "internalType": "address",
          "name": "spender",
          "type": "address"
        }
      ],
      "name": "allowance",
      "outputs": [
        {
          "internalType": "uint256",
          "name": "",
          "type": "uint256"
        }
      ],
      "stateMutability": "view",
      "type": "function"
    },
    {
      "inputs": [
        {
          "internalType": "address",
          "name": "spender",
          "type": "address"
        },
        {
          "internalType": "uint256",
          "name": "amount",
          "type": "uint256"
        }
      ],
      "name": "approve",
      "outputs": [
        {
          "internalType": "bool",
          "name": "",
          "type": "bool"
        }
      ],
      "stateMutability": "nonpayable",
      "type": "function"
    },
    {
      "inputs": [
        {
          "internalType": "address",
          "name": "",
          "type": "address"
        }
      ],
      "name": "authorizedMinters",
      "outputs": [
        {
          "internalType": "bool",
          "name": "",
          "type": "bool"
        }
      ],
      "stateMutability": "view",
      "type": "function"
    },
    {
      "inputs": [
        {
          "internalType": "address",
          "name": "account",
          "type": "address"
        }
      ],
      "name": "balanceOf",
      "outputs": [
        {
          "internalType": "uint256",
          "name": "",
          "type": "uint256"
        }
      ],
      "stateMutability": "view",
      "type": "function"
    },
    {
      "inputs": [],
      "name": "decimals",
      "outputs": [
        {
          "internalType": "uint8",
          "name": "",
          "type": "uint8"
        }
      ],
      "stateMutability": "view",
      "type": "function"
    },
    {
      "inputs": [
        {
          "internalType": "address",
          "name": "spender",
          "type": "address"
        },
        {
          "internalType": "uint256",
          "name": "subtractedValue",
          "type": "uint256"
        }
      ],
      "name": "decreaseAllowance",
      "outputs": [
        {
          "internalType": "bool",
          "name": "",
          "type": "bool"
        }
      ],
      "stateMutability": "nonpayable",
      "type": "function"
    },
    {
      "inputs": [],
      "name": "emergencyPause",
      "outputs": [],
      "stateMutability": "nonpayable",
      "type": "function"
    },
    {
      "inputs": [],
      "name": "emergencyUnpause",
      "outputs": [],
      "stateMutability": "nonpayable",
      "type": "function"
    },
    {
      "inputs": [
        {
          "internalType": "address",
          "name": "spender",
          "type": "address"
        },
        {
          "internalType": "uint256",
          "name": "addedValue",
          "type": "uint256"
        }
      ],
      "name": "increaseAllowance",
      "outputs": [
        {
          "internalType": "bool",
          "name": "",
          "type": "bool"
        }
      ],
      "stateMutability": "nonpayable",
      "type": "function"
    },
    {
      "inputs": [],
      "name": "maxSupply",
      "outputs": [
        {
          "internalType": "uint256",
          "name": "",
          "type": "uint256"
        }
      ],
      "stateMutability": "view",
      "type": "function"
    },
    {
      "inputs": [
        {
          "internalType": "address",
          "name": "account",
          "type": "address"
        },
        {
          "internalType": "uint256",
          "name": "amount",
          "type": "uint256"
        }
      ],
      "name": "mintTokens",
      "outputs": [],
      "stateMutability": "nonpayable",
      "type": "function"
    },
    {
      "inputs": [],
      "name": "multiSigWallet",
      "outputs": [
        {
          "internalType": "address",
          "name": "",
          "type": "address"
        }
      ],
      "stateMutability": "view",
      "type": "function"
    },
    {
      "inputs": [],
      "name": "name",
      "outputs": [
        {
          "internalType": "string",
          "name": "",
          "type": "string"
        }
      ],
      "stateMutability": "view",
      "type": "function"
    },
    {
      "inputs": [],
      "name": "owner",
      "outputs": [
        {
          "internalType": "address",
          "name": "",
          "type": "address"
        }
      ],
      "stateMutability": "view",
      "type": "function"
    },
    {
      "inputs": [],
      "name": "paused",
      "outputs": [
        {
          "internalType": "bool",
          "name": "",
          "type": "bool"
        }
      ],
      "stateMutability": "view",
      "type": "function"
    },
    {
      "inputs": [
        {
          "internalType": "address",
          "name": "_minter",
          "type": "address"
        }
      ],
      "name": "removeMinter",
      "outputs": [],
      "stateMutability": "nonpayable",
      "type": "function"
    },
    {
      "inputs": [],
      "name": "renounceOwnership",
      "outputs": [],
      "stateMutability": "nonpayable",
      "type": "function"
    },
    {
      "inputs": [
        {
          "internalType": "address",
          "name": "_multiSigWallet",
          "type": "address"
        }
      ],
      "name": "setMultiSigWallet",
      "outputs": [],
      "stateMutability": "nonpayable",
      "type": "function"
    },
    {
      "inputs": [],
      "name": "symbol",
      "outputs": [
        {
          "internalType": "string",
          "name": "",
          "type": "string"
        }
      ],
      "stateMutability": "view",
      "type": "function"
    },
    {
      "inputs": [],
      "name": "totalMintedSupply",
      "outputs": [
        {
          "internalType": "uint256",
          "name": "",
          "type": "uint256"
        }
      ],
      "stateMutability": "view",
      "type": "function"
    },
    {
      "inputs": [],
      "name": "totalSupply",
      "outputs": [
        {
          "internalType": "uint256",
          "name": "",
          "type": "uint256"
        }
      ],
      "stateMutability": "view",
      "type": "function"
    },
    {
      "inputs": [
        {
          "internalType": "address",
          "name": "to",
          "type": "address"
        },
        {
          "internalType": "uint256",
          "name": "amount",
          "type": "uint256"
        }
      ],
      "name": "transfer",
      "outputs": [
        {
          "internalType": "bool",
          "name": "",
          "type": "bool"
        }
      ],
      "stateMutability": "nonpayable",
      "type": "function"
    },
    {
      "inputs": [
        {
          "internalType": "address",
          "name": "from",
          "type": "address"
        },
        {
          "internalType": "address",
          "name": "to",
          "type": "address"
        },
        {
          "internalType": "uint256",
          "name": "amount",
          "type": "uint256"
        }
      ],
      "name": "transferFrom",
      "outputs": [
        {
          "internalType": "bool",
          "name": "",
          "type": "bool"
        }
      ],
      "stateMutability": "nonpayable",
      "type": "function"
    },
    {
      "inputs": [
        {
          "internalType": "address",
          "name": "newOwner",
          "type": "address"
        }
      ],
      "name": "transferOwnership",
      "outputs": [],
      "stateMutability": "nonpayable",
      "type": "function"
    },
    {
      "inputs": [],
      "name": "version",
      "outputs": [
        {
          "internalType": "string",
          "name": "",
          "type": "string"
        }
      ],
      "stateMutability": "pure",
      "type": "function"
    }
  ],
  "bytecode": "0x60806040523480156200001157600080fd5b50604051620016f5380380620016f5833981016040819052620000349162000124565b6040518060400160405280600881526020016722a1a79021b7b4b760c11b8152506040518060400160405280600381526020016245434f60e81b8152508160039081620000829190620001e3565b506004620000918282620001e3565b505050620000ae620000a8620000ce60201b60201c565b620000d2565b6005805460ff60a01b1916905560016006556007556000600855620002af565b3390565b600580546001600160a01b038381166001600160a01b0319831681179093556040519116919082907f8be0079c531659141344cd1fd0a4f28419497f9722a3daafe3b4186f6b6457e090600090a35050565b6000602082840312156200013757600080fd5b5051919050565b634e487b7160e01b600052604160045260246000fd5b600181811c908216806200016957607f821691505b6020821081036200018a57634e487b7160e01b600052602260045260246000fd5b50919050565b601f821115620001de57600081815260208120601f850160051c81016020861015620001b95750805b601f850160051c820191505b81811015620001da57828155600101620001c5565b5050505b505050565b81516001600160401b03811115620001ff57620001ff6200013e565b620002178162000210845462000154565b8462000190565b602080601f8311600181146200024f5760008415620002365750858301515b600019600386901b1c1916600185901b178555620001da565b600085815260208120601f198616915b8281101562000280578886015182559484019460019091019084016200025f565b50858210156200029f5787850151600019600388901b60f8161c191681555b5050505050600190811b01905550565b61143680620002bf6000396000f3fe608060405234801561001057600080fd5b506004361061018e5760003560e01c806370a08231116100de578063a9059cbb11610097578063dd62ed3e11610071578063dd62ed3e14610356578063f03b0c0b14610369578063f0dda65c1461037c578063f2fde38b1461038f57600080fd5b8063a9059cbb14610317578063aa2fe91b1461032a578063d5abeb011461034d57600080fd5b806370a08231146102a7578063715018a6146102d05780638da5cb5b146102d857806395d89b41146102e9578063983b2d56146102f1578063a457c2d71461030457600080fd5b8063395093511161014b57806351858e271161012557806351858e271461026357806354fd4d501461026b5780635c975abb1461028c578063601e26031461029e57600080fd5b8063395093511461021d5780634a4e3bd5146102305780634b8feb4f1461023857600080fd5b806306fdde0314610193578063095ea7b3146101b157806318160ddd146101d457806323b872dd146101e65780633092afd5146101f9578063313ce5671461020e575b600080fd5b61019b6103a2565b6040516101a89190611250565b60405180910390f35b6101c46101bf3660046112ba565b610434565b60405190151581526020016101a8565b6002545b6040519081526020016101a8565b6101c46101f43660046112e4565b61044e565b61020c610207366004611320565b610472565b005b604051601281526020016101a8565b6101c461022b3660046112ba565b61055c565b61020c61057e565b60095461024b906001600160a01b031681565b6040516001600160a01b0390911681526020016101a8565b61020c6105f2565b6040805180820190915260058152640322e302e360dc1b602082015261019b565b600554600160a01b900460ff166101c4565b6101d860085481565b6101d86102b5366004611320565b6001600160a01b031660009081526020819052604090205490565b61020c610666565b6005546001600160a01b031661024b565b61019b61067a565b61020c6102ff366004611320565b610689565b6101c46103123660046112ba565b6107ba565b6101c46103253660046112ba565b610835565b6101c4610338366004611320565b600a6020526000908152604090205460ff1681565b6101d860075481565b6101d8610364366004611342565b610843565b61020c610377366004611320565b61086e565b61020c61038a3660046112ba565b610910565b61020c61039d366004611320565b610aa9565b6060600380546103b190611375565b80601f01602080910402602001604051908101604052809291908181526020018280546103dd90611375565b801561042a5780601f106103ff5761010080835404028352916020019161042a565b820191906000526020600020905b81548152906001019060200180831161040d57829003601f168201915b5050505050905090565b600033610442818585610b22565b60019150505b92915050565b60003361045c858285610c46565b610467858585610cc0565b506001949350505050565b6009546001600160a01b031633148061049557506005546001600160a01b031633145b6104ba5760405162461bcd60e51b81526004016104b1906113af565b60405180910390fd5b6001600160a01b0381166000908152600a602052604090205460ff166105135760405162461bcd60e51b815260206004820152600e60248201526d139bdd08185d5d1a1bdc9a5e995960921b60448201526064016104b1565b6001600160a01b0381166000818152600a6020526040808220805460ff19169055517fe94479a9f7e1952cc78f2d6baab678adc1b772d936c6583def489e524cb666929190a250565b60003361044281858561056f8383610843565b61057991906113df565b610b22565b6009546001600160a01b03163314806105a157506005546001600160a01b031633145b6105bd5760405162461bcd60e51b81526004016104b1906113af565b6105c5610e6f565b60405133907f306ca22c455fe433ebbf0542bbf947ea6a725495f9e1043db2a47e3c5794038590600090a2565b6009546001600160a01b031633148061061557506005546001600160a01b031633145b6106315760405162461bcd60e51b81526004016104b1906113af565b610639610ec4565b60405133907f7c83004a7e59a8ea03b200186c4dda29a4e144d9844d63dbc1a09acf7dfcd48590600090a2565b61066e610f07565b6106786000610f61565b565b6060600480546103b190611375565b6009546001600160a01b03163314806106ac57506005546001600160a01b031633145b6106c85760405162461bcd60e51b81526004016104b1906113af565b6001600160a01b0381166107105760405162461bcd60e51b815260206004820152600f60248201526e496e76616c6964206164647265737360881b60448201526064016104b1565b6001600160a01b0381166000908152600a602052604090205460ff161561076e5760405162461bcd60e51b8152602060048201526012602482015271105b1c9958591e48185d5d1a1bdc9a5e995960721b60448201526064016104b1565b6001600160a01b0381166000818152600a6020526040808220805460ff19166001179055517f6ae172837ea30b801fbfcdd4108aa1d5bf8ff775444fd70256b44e6bf3dfc3f69190a250565b600033816107c88286610843565b9050838110156108285760405162461bcd60e51b815260206004820152602560248201527f45524332303a2064656372656173656420616c6c6f77616e63652062656c6f77604482015264207a65726f60d81b60648201526084016104b1565b6104678286868403610b22565b600033610442818585610cc0565b6001600160a01b03918216600090815260016020908152604080832093909416825291909152205490565b610876610f07565b6001600160a01b0381166108be5760405162461bcd60e51b815260206004820152600f60248201526e496e76616c6964206164647265737360881b60448201526064016104b1565b600980546001600160a01b038381166001600160a01b0319831681179093556040519116919082907f9894dee402b920a4a4469f21305c51b9d8b5811961973740beadb654b2a145c290600090a35050565b336000908152600a602052604090205460ff168061093857506005546001600160a01b031633145b61097d5760405162461bcd60e51b8152602060048201526016602482015275139bdd08185d5d1a1bdc9a5e9959081d1bc81b5a5b9d60521b60448201526064016104b1565b610985610fb3565b61098d611000565b6001600160a01b0382166109e35760405162461bcd60e51b815260206004820152601b60248201527f43616e6e6f74206d696e7420746f207a65726f2061646472657373000000000060448201526064016104b1565b60008111610a335760405162461bcd60e51b815260206004820152601d60248201527f416d6f756e74206d7573742062652067726561746572207468616e203000000060448201526064016104b1565b60075481610a4060025490565b610a4a91906113df565b1115610a915760405162461bcd60e51b815260206004820152601660248201527545786365656473206d6178696d756d20737570706c7960501b60448201526064016104b1565b610a9b8282611059565b610aa56001600655565b5050565b610ab1610f07565b6001600160a01b038116610b165760405162461bcd60e51b815260206004820152602660248201527f4f776e61626c653a206e6577206f776e657220697320746865207a65726f206160448201526564647265737360d01b60648201526084016104b1565b610b1f81610f61565b50565b6001600160a01b038316610b845760405162461bcd60e51b8152602060048201526024808201527f45524332303a20617070726f76652066726f6d20746865207a65726f206164646044820152637265737360e01b60648201526084016104b1565b6001600160a01b038216610be55760405162461bcd60e51b815260206004820152602260248201527f45524332303a20617070726f766520746f20746865207a65726f206164647265604482015261737360f01b60648201526084016104b1565b6001600160a01b0383811660008181526001602090815260408083209487168084529482529182902085905590518481527f8c5be1e5ebec7d5bd14f71427d1e84f3dd0314c0f7b2291e5b200ac8c7c3b925910160405180910390a3505050565b6000610c528484610843565b90506000198114610cba5781811015610cad5760405162461bcd60e51b815260206004820152601d60248201527f45524332303a20696e73756666696369656e7420616c6c6f77616e636500000060448201526064016104b1565b610cba8484848403610b22565b50505050565b6001600160a01b038316610d245760405162461bcd60e51b815260206004820152602560248201527f45524332303a207472616e736665722066726f6d20746865207a65726f206164604482015264647265737360d81b60648201526084016104b1565b6001600160a01b038216610d865760405162461bcd60e51b815260206004820152602360248201527f45524332303a207472616e7366657220746f20746865207a65726f206164647260448201526265737360e81b60648201526084016104b1565b610d918383836110d6565b6001600160a01b03831660009081526020819052604090205481811015610e095760405162461bcd60e51b815260206004820152602660248201527f45524332303a207472616e7366657220616d6f756e7420657863656564732062604482015265616c616e636560d01b60648201526084016104b1565b6001600160a01b03848116600081815260208181526040808320878703905593871680835291849020805487019055925185815290927fddf252ad1be2c89b69c2b068fc378daa952ba7f163c4a11628f55a4df523b3ef910160405180910390a3610cba565b610e77611135565b6005805460ff60a01b191690557f5db9ee0a495bf2e6ff9c91a7834c1ba4fdd244a5e8aa4e537bd38aeae4b073aa335b6040516001600160a01b03909116815260200160405180910390a1565b610ecc610fb3565b6005805460ff60a01b1916600160a01b1790557f62e78cea01bee320cd4e420270b5ea74000d11b0c9f74754ebdbfc544b05a258610ea73390565b6005546001600160a01b031633146106785760405162461bcd60e51b815260206004820181905260248201527f4f776e61626c653a2063616c6c6572206973206e6f7420746865206f776e657260448201526064016104b1565b600580546001600160a01b038381166001600160a01b0319831681179093556040519116919082907f8be0079c531659141344cd1fd0a4f28419497f9722a3daafe3b4186f6b6457e090600090a35050565b600554600160a01b900460ff16156106785760405162461bcd60e51b815260206004820152601060248201526f14185d5cd8589b194e881c185d5cd95960821b60448201526064016104b1565b6002600654036110525760405162461bcd60e51b815260206004820152601f60248201527f5265656e7472616e637947756172643a207265656e7472616e742063616c6c0060448201526064016104b1565b6002600655565b6007548160085461106a91906113df565b11156110b15760405162461bcd60e51b815260206004820152601660248201527545786365656473206d6178696d756d20737570706c7960501b60448201526064016104b1565b6110bb8282611185565b80600860008282546110cd91906113df565b90915550505050565b600554600160a01b900460ff16156111305760405162461bcd60e51b815260206004820152601a60248201527f546f6b656e207472616e7366657273206172652070617573656400000000000060448201526064016104b1565b505050565b600554600160a01b900460ff166106785760405162461bcd60e51b815260206004820152601460248201527314185d5cd8589b194e881b9bdd081c185d5cd95960621b60448201526064016104b1565b6001600160a01b0382166111db5760405162461bcd60e51b815260206004820152601f60248201527f45524332303a206d696e7420746f20746865207a65726f20616464726573730060448201526064016104b1565b6111e7600083836110d6565b80600260008282546111f991906113df565b90915550506001600160a01b038216600081815260208181526040808320805486019055518481527fddf252ad1be2c89b69c2b068fc378daa952ba7f163c4a11628f55a4df523b3ef910160405180910390a35050565b600060208083528351808285015260005b8181101561127d57858101830151858201604001528201611261565b506000604082860101526040601f19601f8301168501019250505092915050565b80356001600160a01b03811681146112b557600080fd5b919050565b600080604083850312156112cd57600080fd5b6112d68361129e565b946020939093013593505050565b6000806000606084860312156112f957600080fd5b6113028461129e565b92506113106020850161129e565b9150604084013590509250925092565b60006020828403121561133257600080fd5b61133b8261129e565b9392505050565b6000806040838503121561135557600080fd5b61135e8361129e565b915061136c6020840161129e565b90509250929050565b600181811c9082168061138957607f821691505b6020821081036113a957634e487b7160e01b600052602260045260246000fd5b50919050565b60208082526016908201527527b7363c9026bab63a34a9b4b39037b91027bbb732b960511b604082015260600190565b8082018082111561044857634e487b7160e01b600052601160045260246000fdfea264697066735822122044fc4e0f372997bfbc49ce0cd9a06807f7b184d5dfec9cfb64242297222d4e5364736f6c63430008130033",
  "linkReferences": {},
  "deployedLinkReferences": {}
}