{
  "_format": "hh-sol-artifact-1",
  "contractName": "DonationContract",
  "sourceName": "contracts/Donation.sol",
  "abi": [
    {
      "inputs": [
        {
          "internalType": "address",
          "name": "ecoAddr",
          "type": "address"
        },
        {
          "internalType": "address",
          "name": "oceansAddr",
          "type": "address"
        },
        {
          "internalType": "address",
          "name": "rainAddr",
          "type": "address"
        },
        {
          "internalType": "address",
          "name": "sequoiasAddr",
          "type": "address"
        },
        {
          "internalType": "address",
          "name": "energyAddr",
          "type": "address"
        }
      ],
      "stateMutability": "nonpayable",
      "type": "constructor"
    },
    {
      "anonymous": false,
      "inputs": [
        {
          "indexed": true,
          "internalType": "address",
          "name": "owner",
          "type": "address"
        },
        {
          "indexed": true,
          "internalType": "address",
          "name": "approved",
          "type": "address"
        },
        {
          "indexed": true,
          "internalType": "uint256",
          "name": "tokenId",
          "type": "uint256"
        }
      ],
      "name": "Approval",
      "type": "event"
    },
    {
      "anonymous": false,
      "inputs": [
        {
          "indexed": true,
          "internalType": "address",
          "name": "owner",
          "type": "address"
        },
        {
          "indexed": true,
          "internalType": "address",
          "name": "operator",
          "type": "address"
        },
        {
          "indexed": false,
          "internalType": "bool",
          "name": "approved",
          "type": "bool"
        }
      ],
      "name": "ApprovalForAll",
      "type": "event"
    },
    {
      "anonymous": false,
      "inputs": [
        {
          "indexed": false,
          "internalType": "uint256",
          "name": "_fromTokenId",
          "type": "uint256"
        },
        {
          "indexed": false,
          "internalType": "uint256",
          "name": "_toTokenId",
          "type": "uint256"
        }
      ],
      "name": "BatchMetadataUpdate",
      "type": "event"
    },
    {
      "anonymous": false,
      "inputs": [
        {
          "indexed": false,
          "internalType": "enum DonationContract.Foundation",
          "name": "f",
          "type": "uint8"
        },
        {
          "indexed": false,
          "internalType": "address",
          "name": "sender",
          "type": "address"
        },
        {
          "indexed": false,
          "internalType": "uint256",
          "name": "amount",
          "type": "uint256"
        },
        {
          "indexed": false,
          "internalType": "string",
          "name": "msg_",
          "type": "string"
        }
      ],
      "name": "DonationMade",
      "type": "event"
    },
    {
      "anonymous": false,
      "inputs": [
        {
          "indexed": false,
          "internalType": "uint256",
          "name": "_tokenId",
          "type": "uint256"
        }
      ],
      "name": "MetadataUpdate",
      "type": "event"
    },
    {
      "anonymous": false,
      "inputs": [
        {
          "indexed": false,
          "internalType": "address",
          "name": "donor",
          "type": "address"
        },
        {
          "indexed": false,
          "internalType": "uint256",
          "name": "bal",
          "type": "uint256"
        }
      ],
      "name": "TokenBalanceUpdated",
      "type": "event"
    },
    {
      "anonymous": false,
      "inputs": [
        {
          "indexed": true,
          "internalType": "address",
          "name": "from",
          "type": "address"
        },
        {
          "indexed": true,
          "internalType": "address",
          "name": "to",
          "type": "address"
        },
        {
          "indexed": true,
          "internalType": "uint256",
          "name": "tokenId",
          "type": "uint256"
        }
      ],
      "name": "Transfer",
      "type": "event"
    },
    {
      "inputs": [
        {
          "internalType": "address",
          "name": "to",
          "type": "address"
        },
        {
          "internalType": "uint256",
          "name": "tokenId",
          "type": "uint256"
        }
      ],
      "name": "approve",
      "outputs": [],
      "stateMutability": "nonpayable",
      "type": "function"
    },
    {
      "inputs": [
        {
          "internalType": "address",
          "name": "owner",
          "type": "address"
        }
      ],
      "name": "balanceOf",
      "outputs": [
        {
          "internalType": "uint256",
          "name": "",
          "type": "uint256"
        }
      ],
      "stateMutability": "view",
      "type": "function"
    },
    {
      "inputs": [
        {
          "internalType": "enum DonationContract.Foundation",
          "name": "f",
          "type": "uint8"
        },
        {
          "internalType": "string",
          "name": "message",
          "type": "string"
        }
      ],
      "name": "donate",
      "outputs": [],
      "stateMutability": "payable",
      "type": "function"
    },
    {
      "inputs": [],
      "name": "eco",
      "outputs": [
        {
          "internalType": "contract EcoCoin",
          "name": "",
          "type": "address"
        }
      ],
      "stateMutability": "view",
      "type": "function"
    },
    {
      "inputs": [
        {
          "internalType": "enum DonationContract.Foundation",
          "name": "",
          "type": "uint8"
        }
      ],
      "name": "foundationAddresses",
      "outputs": [
        {
          "internalType": "address",
          "name": "",
          "type": "address"
        }
      ],
      "stateMutability": "view",
      "type": "function"
    },
    {
      "inputs": [
        {
          "internalType": "uint256",
          "name": "tokenId",
          "type": "uint256"
        }
      ],
      "name": "getApproved",
      "outputs": [
        {
          "internalType": "address",
          "name": "",
          "type": "address"
        }
      ],
      "stateMutability": "view",
      "type": "function"
    },
    {
      "inputs": [
        {
          "internalType": "address",
          "name": "owner",
          "type": "address"
        },
        {
          "internalType": "address",
          "name": "operator",
          "type": "address"
        }
      ],
      "name": "isApprovedForAll",
      "outputs": [
        {
          "internalType": "bool",
          "name": "",
          "type": "bool"
        }
      ],
      "stateMutability": "view",
      "type": "function"
    },
    {
      "inputs": [],
      "name": "name",
      "outputs": [
        {
          "internalType": "string",
          "name": "",
          "type": "string"
        }
      ],
      "stateMutability": "view",
      "type": "function"
    },
    {
      "inputs": [],
      "name": "nextId",
      "outputs": [
        {
          "internalType": "uint256",
          "name": "",
          "type": "uint256"
        }
      ],
      "stateMutability": "view",
      "type": "function"
    },
    {
      "inputs": [],
      "name": "owner",
      "outputs": [
        {
          "internalType": "address",
          "name": "",
          "type": "address"
        }
      ],
      "stateMutability": "view",
      "type": "function"
    },
    {
      "inputs": [
        {
          "internalType": "uint256",
          "name": "tokenId",
          "type": "uint256"
        }
      ],
      "name": "ownerOf",
      "outputs": [
        {
          "internalType": "address",
          "name": "",
          "type": "address"
        }
      ],
      "stateMutability": "view",
      "type": "function"
    },
    {
      "inputs": [
        {
          "internalType": "address",
          "name": "from",
          "type": "address"
        },
        {
          "internalType": "address",
          "name": "to",
          "type": "address"
        },
        {
          "internalType": "uint256",
          "name": "tokenId",
          "type": "uint256"
        }
      ],
      "name": "safeTransferFrom",
      "outputs": [],
      "stateMutability": "nonpayable",
      "type": "function"
    },
    {
      "inputs": [
        {
          "internalType": "address",
          "name": "from",
          "type": "address"
        },
        {
          "internalType": "address",
          "name": "to",
          "type": "address"
        },
        {
          "internalType": "uint256",
          "name": "tokenId",
          "type": "uint256"
        },
        {
          "internalType": "bytes",
          "name": "data",
          "type": "bytes"
        }
      ],
      "name": "safeTransferFrom",
      "outputs": [],
      "stateMutability": "nonpayable",
      "type": "function"
    },
    {
      "inputs": [
        {
          "internalType": "address",
          "name": "operator",
          "type": "address"
        },
        {
          "internalType": "bool",
          "name": "approved",
          "type": "bool"
        }
      ],
      "name": "setApprovalForAll",
      "outputs": [],
      "stateMutability": "nonpayable",
      "type": "function"
    },
    {
      "inputs": [
        {
          "internalType": "bytes4",
          "name": "interfaceId",
          "type": "bytes4"
        }
      ],
      "name": "supportsInterface",
      "outputs": [
        {
          "internalType": "bool",
          "name": "",
          "type": "bool"
        }
      ],
      "stateMutability": "view",
      "type": "function"
    },
    {
      "inputs": [],
      "name": "symbol",
      "outputs": [
        {
          "internalType": "string",
          "name": "",
          "type": "string"
        }
      ],
      "stateMutability": "view",
      "type": "function"
    },
    {
      "inputs": [
        {
          "internalType": "uint256",
          "name": "id",
          "type": "uint256"
        }
      ],
      "name": "tokenURI",
      "outputs": [
        {
          "internalType": "string",
          "name": "",
          "type": "string"
        }
      ],
      "stateMutability": "view",
      "type": "function"
    },
    {
      "inputs": [
        {
          "internalType": "address",
          "name": "from",
          "type": "address"
        },
        {
          "internalType": "address",
          "name": "to",
          "type": "address"
        },
        {
          "internalType": "uint256",
          "name": "tokenId",
          "type": "uint256"
        }
      ],
      "name": "transferFrom",
      "outputs": [],
      "stateMutability": "nonpayable",
      "type": "function"
    },
    {
      "stateMutability": "payable",
      "type": "receive"
    }
  ],
  "bytecode": "0x60806040526001600f553480156200001657600080fd5b506040516200376d3803806200376d83398181016040528101906200003c91906200052f565b6040518060400160405280601281526020017f45636f20446f6e6174696f6e20426164676500000000000000000000000000008152506040518060400160405280600981526020017f45434f2d424144474500000000000000000000000000000000000000000000008152508160009081620000b9919062000831565b508060019081620000cb919062000831565b50505033600860006101000a81548173ffffffffffffffffffffffffffffffffffffffff021916908373ffffffffffffffffffffffffffffffffffffffff16021790555084600760006101000a81548173ffffffffffffffffffffffffffffffffffffffff021916908373ffffffffffffffffffffffffffffffffffffffff16021790555083600960008060038111156200016b576200016a62000918565b5b600381111562000180576200017f62000918565b5b815260200190815260200160002060006101000a81548173ffffffffffffffffffffffffffffffffffffffff021916908373ffffffffffffffffffffffffffffffffffffffff160217905550826009600060016003811115620001e857620001e762000918565b5b6003811115620001fd57620001fc62000918565b5b815260200190815260200160002060006101000a81548173ffffffffffffffffffffffffffffffffffffffff021916908373ffffffffffffffffffffffffffffffffffffffff16021790555081600960006002600381111562000265576200026462000918565b5b60038111156200027a576200027962000918565b5b815260200190815260200160002060006101000a81548173ffffffffffffffffffffffffffffffffffffffff021916908373ffffffffffffffffffffffffffffffffffffffff1602179055508060096000600380811115620002e157620002e062000918565b5b6003811115620002f657620002f562000918565b5b815260200190815260200160002060006101000a81548173ffffffffffffffffffffffffffffffffffffffff021916908373ffffffffffffffffffffffffffffffffffffffff1602179055506040518060400160405280601381526020017f2f6261646765732f6f6365616e732e6a736f6e00000000000000000000000000815250600b60006004811062000390576200038f62000947565b5b0190816200039f919062000831565b506040518060400160405280601381526020017f2f6261646765732f6f6365616e732e6a736f6e00000000000000000000000000815250600b600160048110620003ee57620003ed62000947565b5b019081620003fd919062000831565b506040518060400160405280601381526020017f2f6261646765732f6f6365616e732e6a736f6e00000000000000000000000000815250600b6002600481106200044c576200044b62000947565b5b0190816200045b919062000831565b506040518060400160405280601381526020017f2f6261646765732f6f6365616e732e6a736f6e00000000000000000000000000815250600b600360048110620004aa57620004a962000947565b5b019081620004b9919062000831565b50505050505062000976565b600080fd5b600073ffffffffffffffffffffffffffffffffffffffff82169050919050565b6000620004f782620004ca565b9050919050565b6200050981620004ea565b81146200051557600080fd5b50565b6000815190506200052981620004fe565b92915050565b600080600080600060a086880312156200054e576200054d620004c5565b5b60006200055e8882890162000518565b9550506020620005718882890162000518565b9450506040620005848882890162000518565b9350506060620005978882890162000518565b9250506080620005aa8882890162000518565b9150509295509295909350565b600081519050919050565b7f4e487b7100000000000000000000000000000000000000000000000000000000600052604160045260246000fd5b7f4e487b7100000000000000000000000000000000000000000000000000000000600052602260045260246000fd5b600060028204905060018216806200063957607f821691505b6020821081036200064f576200064e620005f1565b5b50919050565b60008190508160005260206000209050919050565b60006020601f8301049050919050565b600082821b905092915050565b600060088302620006b97fffffffffffffffffffffffffffffffffffffffffffffffffffffffffffffffff826200067a565b620006c586836200067a565b95508019841693508086168417925050509392505050565b6000819050919050565b6000819050919050565b6000620007126200070c6200070684620006dd565b620006e7565b620006dd565b9050919050565b6000819050919050565b6200072e83620006f1565b620007466200073d8262000719565b84845462000687565b825550505050565b600090565b6200075d6200074e565b6200076a81848462000723565b505050565b5b8181101562000792576200078660008262000753565b60018101905062000770565b5050565b601f821115620007e157620007ab8162000655565b620007b6846200066a565b81016020851015620007c6578190505b620007de620007d5856200066a565b8301826200076f565b50505b505050565b600082821c905092915050565b60006200080660001984600802620007e6565b1980831691505092915050565b6000620008218383620007f3565b9150826002028217905092915050565b6200083c82620005b7565b67ffffffffffffffff811115620008585762000857620005c2565b5b62000864825462000620565b6200087182828562000796565b600060209050601f831160018114620008a9576000841562000894578287015190505b620008a0858262000813565b86555062000910565b601f198416620008b98662000655565b60005b82811015620008e357848901518255600182019150602085019450602081019050620008bc565b86831015620009035784890151620008ff601f891682620007f3565b8355505b6001600288020188555050505b505050505050565b7f4e487b7100000000000000000000000000000000000000000000000000000000600052602160045260246000fd5b7f4e487b7100000000000000000000000000000000000000000000000000000000600052603260045260246000fd5b612de780620009866000396000f3fe60806040526004361061010d5760003560e01c806370a0823111610095578063a22cb46511610064578063a22cb4651461039c578063b88d4fde146103c5578063c87b56dd146103ee578063ca8b03091461042b578063e985e9c51461044757610114565b806370a08231146102de5780638da5cb5b1461031b57806394e63e631461034657806395d89b411461037157610114565b806323b872dd116100dc57806323b872dd146101e75780632eade7e81461021057806342842e0e1461024d57806361b8ce8c146102765780636352211e146102a157610114565b806301ffc9a71461011957806306fdde0314610156578063081812fc14610181578063095ea7b3146101be57610114565b3661011457005b600080fd5b34801561012557600080fd5b50610140600480360381019061013b9190611c17565b610484565b60405161014d9190611c5f565b60405180910390f35b34801561016257600080fd5b5061016b6104e5565b6040516101789190611d0a565b60405180910390f35b34801561018d57600080fd5b506101a860048036038101906101a39190611d62565b610577565b6040516101b59190611dd0565b60405180910390f35b3480156101ca57600080fd5b506101e560048036038101906101e09190611e17565b6105bd565b005b3480156101f357600080fd5b5061020e60048036038101906102099190611e57565b6106d4565b005b34801561021c57600080fd5b5061023760048036038101906102329190611ecf565b610734565b6040516102449190611dd0565b60405180910390f35b34801561025957600080fd5b50610274600480360381019061026f9190611e57565b610767565b005b34801561028257600080fd5b5061028b610787565b6040516102989190611f0b565b60405180910390f35b3480156102ad57600080fd5b506102c860048036038101906102c39190611d62565b61078d565b6040516102d59190611dd0565b60405180910390f35b3480156102ea57600080fd5b5061030560048036038101906103009190611f26565b610813565b6040516103129190611f0b565b60405180910390f35b34801561032757600080fd5b506103306108ca565b60405161033d9190611dd0565b60405180910390f35b34801561035257600080fd5b5061035b6108f0565b6040516103689190611fb2565b60405180910390f35b34801561037d57600080fd5b50610386610916565b6040516103939190611d0a565b60405180910390f35b3480156103a857600080fd5b506103c360048036038101906103be9190611ff9565b6109a8565b005b3480156103d157600080fd5b506103ec60048036038101906103e7919061216e565b6109be565b005b3480156103fa57600080fd5b5061041560048036038101906104109190611d62565b610a20565b6040516104229190611d0a565b60405180910390f35b61044560048036038101906104409190612251565b610b44565b005b34801561045357600080fd5b5061046e600480360381019061046991906122b1565b610e9f565b60405161047b9190611c5f565b60405180910390f35b6000634906490660e01b7bffffffffffffffffffffffffffffffffffffffffffffffffffffffff1916827bffffffffffffffffffffffffffffffffffffffffffffffffffffffff191614806104de57506104dd82610f33565b5b9050919050565b6060600080546104f490612320565b80601f016020809104026020016040519081016040528092919081815260200182805461052090612320565b801561056d5780601f106105425761010080835404028352916020019161056d565b820191906000526020600020905b81548152906001019060200180831161055057829003601f168201915b5050505050905090565b600061058282611015565b6004600083815260200190815260200160002060009054906101000a900473ffffffffffffffffffffffffffffffffffffffff169050919050565b60006105c88261078d565b90508073ffffffffffffffffffffffffffffffffffffffff168373ffffffffffffffffffffffffffffffffffffffff1603610638576040517f08c379a000000000000000000000000000000000000000000000000000000000815260040161062f906123c3565b60405180910390fd5b8073ffffffffffffffffffffffffffffffffffffffff16610657611060565b73ffffffffffffffffffffffffffffffffffffffff161480610686575061068581610680611060565b610e9f565b5b6106c5576040517f08c379a00000000000000000000000000000000000000000000000000000000081526004016106bc90612455565b60405180910390fd5b6106cf8383611068565b505050565b6106e56106df611060565b82611121565b610724576040517f08c379a000000000000000000000000000000000000000000000000000000000815260040161071b906124e7565b60405180910390fd5b61072f8383836111b6565b505050565b60096020528060005260406000206000915054906101000a900473ffffffffffffffffffffffffffffffffffffffff1681565b610782838383604051806020016040528060008152506109be565b505050565b600f5481565b600080610799836114af565b9050600073ffffffffffffffffffffffffffffffffffffffff168173ffffffffffffffffffffffffffffffffffffffff160361080a576040517f08c379a000000000000000000000000000000000000000000000000000000000815260040161080190612553565b60405180910390fd5b80915050919050565b60008073ffffffffffffffffffffffffffffffffffffffff168273ffffffffffffffffffffffffffffffffffffffff1603610883576040517f08c379a000000000000000000000000000000000000000000000000000000000815260040161087a906125e5565b60405180910390fd5b600360008373ffffffffffffffffffffffffffffffffffffffff1673ffffffffffffffffffffffffffffffffffffffff168152602001908152602001600020549050919050565b600860009054906101000a900473ffffffffffffffffffffffffffffffffffffffff1681565b600760009054906101000a900473ffffffffffffffffffffffffffffffffffffffff1681565b60606001805461092590612320565b80601f016020809104026020016040519081016040528092919081815260200182805461095190612320565b801561099e5780601f106109735761010080835404028352916020019161099e565b820191906000526020600020905b81548152906001019060200180831161098157829003601f168201915b5050505050905090565b6109ba6109b3611060565b83836114ec565b5050565b6109cf6109c9611060565b83611121565b610a0e576040517f08c379a0000000000000000000000000000000000000000000000000000000008152600401610a05906124e7565b60405180910390fd5b610a1a84848484611658565b50505050565b6060610a2b826116b4565b610a6a576040517f08c379a0000000000000000000000000000000000000000000000000000000008152600401610a6190612651565b60405180910390fd5b600b600a600084815260200190815260200160002060009054906101000a900460ff166003811115610a9f57610a9e612671565b5b60ff1660048110610ab357610ab26126a0565b5b018054610abf90612320565b80601f0160208091040260200160405190810160405280929190818152602001828054610aeb90612320565b8015610b385780601f10610b0d57610100808354040283529160200191610b38565b820191906000526020600020905b815481529060010190602001808311610b1b57829003601f168201915b50505050509050919050565b60003411610b87576040517f08c379a0000000000000000000000000000000000000000000000000000000008152600401610b7e9061271b565b60405180910390fd5b600760009054906101000a900473ffffffffffffffffffffffffffffffffffffffff1673ffffffffffffffffffffffffffffffffffffffff1663f0dda65c33600a34610bd3919061276a565b6040518363ffffffff1660e01b8152600401610bf09291906127ac565b600060405180830381600087803b158015610c0a57600080fd5b505af1158015610c1e573d6000803e3d6000fd5b505050507fe45c01138e54bb610afd62c8b625077319978702155f247426c51b533c04c5d233600760009054906101000a900473ffffffffffffffffffffffffffffffffffffffff1673ffffffffffffffffffffffffffffffffffffffff166370a08231336040518263ffffffff1660e01b8152600401610c9f9190611dd0565b602060405180830381865afa158015610cbc573d6000803e3d6000fd5b505050506040513d601f19601f82011682018060405250810190610ce091906127ea565b604051610cee9291906127ac565b60405180910390a1600060096000856003811115610d0f57610d0e612671565b5b6003811115610d2157610d20612671565b5b815260200190815260200160002060009054906101000a900473ffffffffffffffffffffffffffffffffffffffff1673ffffffffffffffffffffffffffffffffffffffff1634604051610d7390612848565b60006040518083038185875af1925050503d8060008114610db0576040519150601f19603f3d011682016040523d82523d6000602084013e610db5565b606091505b5050905080610df9576040517f08c379a0000000000000000000000000000000000000000000000000000000008152600401610df0906128a9565b60405180910390fd5b6000600f6000815480929190610e0e906128c9565b919050559050610e1e33826116f5565b84600a600083815260200190815260200160002060006101000a81548160ff02191690836003811115610e5457610e53612671565b5b02179055507f67c352d9d4655f7c490cc59a09b0d9d254a2cdbfc6f6b5f91c539573bb1327dc8533348787604051610e90959493929190612986565b60405180910390a15050505050565b6000600560008473ffffffffffffffffffffffffffffffffffffffff1673ffffffffffffffffffffffffffffffffffffffff16815260200190815260200160002060008373ffffffffffffffffffffffffffffffffffffffff1673ffffffffffffffffffffffffffffffffffffffff16815260200190815260200160002060009054906101000a900460ff16905092915050565b60007f80ac58cd000000000000000000000000000000000000000000000000000000007bffffffffffffffffffffffffffffffffffffffffffffffffffffffff1916827bffffffffffffffffffffffffffffffffffffffffffffffffffffffff19161480610ffe57507f5b5e139f000000000000000000000000000000000000000000000000000000007bffffffffffffffffffffffffffffffffffffffffffffffffffffffff1916827bffffffffffffffffffffffffffffffffffffffffffffffffffffffff1916145b8061100e575061100d82611713565b5b9050919050565b61101e816116b4565b61105d576040517f08c379a000000000000000000000000000000000000000000000000000000000815260040161105490612553565b60405180910390fd5b50565b600033905090565b816004600083815260200190815260200160002060006101000a81548173ffffffffffffffffffffffffffffffffffffffff021916908373ffffffffffffffffffffffffffffffffffffffff160217905550808273ffffffffffffffffffffffffffffffffffffffff166110db8361078d565b73ffffffffffffffffffffffffffffffffffffffff167f8c5be1e5ebec7d5bd14f71427d1e84f3dd0314c0f7b2291e5b200ac8c7c3b92560405160405180910390a45050565b60008061112d8361078d565b90508073ffffffffffffffffffffffffffffffffffffffff168473ffffffffffffffffffffffffffffffffffffffff16148061116f575061116e8185610e9f565b5b806111ad57508373ffffffffffffffffffffffffffffffffffffffff1661119584610577565b73ffffffffffffffffffffffffffffffffffffffff16145b91505092915050565b8273ffffffffffffffffffffffffffffffffffffffff166111d68261078d565b73ffffffffffffffffffffffffffffffffffffffff161461122c576040517f08c379a000000000000000000000000000000000000000000000000000000000815260040161122390612a46565b60405180910390fd5b600073ffffffffffffffffffffffffffffffffffffffff168273ffffffffffffffffffffffffffffffffffffffff160361129b576040517f08c379a000000000000000000000000000000000000000000000000000000000815260040161129290612ad8565b60405180910390fd5b6112a8838383600161177d565b8273ffffffffffffffffffffffffffffffffffffffff166112c88261078d565b73ffffffffffffffffffffffffffffffffffffffff161461131e576040517f08c379a000000000000000000000000000000000000000000000000000000000815260040161131590612a46565b60405180910390fd5b6004600082815260200190815260200160002060006101000a81549073ffffffffffffffffffffffffffffffffffffffff02191690556001600360008573ffffffffffffffffffffffffffffffffffffffff1673ffffffffffffffffffffffffffffffffffffffff168152602001908152602001600020600082825403925050819055506001600360008473ffffffffffffffffffffffffffffffffffffffff1673ffffffffffffffffffffffffffffffffffffffff16815260200190815260200160002060008282540192505081905550816002600083815260200190815260200160002060006101000a81548173ffffffffffffffffffffffffffffffffffffffff021916908373ffffffffffffffffffffffffffffffffffffffff160217905550808273ffffffffffffffffffffffffffffffffffffffff168473ffffffffffffffffffffffffffffffffffffffff167fddf252ad1be2c89b69c2b068fc378daa952ba7f163c4a11628f55a4df523b3ef60405160405180910390a46114aa8383836001611783565b505050565b60006002600083815260200190815260200160002060009054906101000a900473ffffffffffffffffffffffffffffffffffffffff169050919050565b8173ffffffffffffffffffffffffffffffffffffffff168373ffffffffffffffffffffffffffffffffffffffff160361155a576040517f08c379a000000000000000000000000000000000000000000000000000000000815260040161155190612b44565b60405180910390fd5b80600560008573ffffffffffffffffffffffffffffffffffffffff1673ffffffffffffffffffffffffffffffffffffffff16815260200190815260200160002060008473ffffffffffffffffffffffffffffffffffffffff1673ffffffffffffffffffffffffffffffffffffffff16815260200190815260200160002060006101000a81548160ff0219169083151502179055508173ffffffffffffffffffffffffffffffffffffffff168373ffffffffffffffffffffffffffffffffffffffff167f17307eab39ab6107e8899845ad3d59bd9653f200f220920489ca2b5937696c318360405161164b9190611c5f565b60405180910390a3505050565b6116638484846111b6565b61166f84848484611789565b6116ae576040517f08c379a00000000000000000000000000000000000000000000000000000000081526004016116a590612bd6565b60405180910390fd5b50505050565b60008073ffffffffffffffffffffffffffffffffffffffff166116d6836114af565b73ffffffffffffffffffffffffffffffffffffffff1614159050919050565b61170f828260405180602001604052806000815250611910565b5050565b60007f01ffc9a7000000000000000000000000000000000000000000000000000000007bffffffffffffffffffffffffffffffffffffffffffffffffffffffff1916827bffffffffffffffffffffffffffffffffffffffffffffffffffffffff1916149050919050565b50505050565b50505050565b60006117aa8473ffffffffffffffffffffffffffffffffffffffff1661196b565b15611903578373ffffffffffffffffffffffffffffffffffffffff1663150b7a026117d3611060565b8786866040518563ffffffff1660e01b81526004016117f59493929190612c4b565b6020604051808303816000875af192505050801561183157506040513d601f19601f8201168201806040525081019061182e9190612cac565b60015b6118b3573d8060008114611861576040519150601f19603f3d011682016040523d82523d6000602084013e611866565b606091505b5060008151036118ab576040517f08c379a00000000000000000000000000000000000000000000000000000000081526004016118a290612bd6565b60405180910390fd5b805181602001fd5b63150b7a0260e01b7bffffffffffffffffffffffffffffffffffffffffffffffffffffffff1916817bffffffffffffffffffffffffffffffffffffffffffffffffffffffff191614915050611908565b600190505b949350505050565b61191a838361198e565b6119276000848484611789565b611966576040517f08c379a000000000000000000000000000000000000000000000000000000000815260040161195d90612bd6565b60405180910390fd5b505050565b6000808273ffffffffffffffffffffffffffffffffffffffff163b119050919050565b600073ffffffffffffffffffffffffffffffffffffffff168273ffffffffffffffffffffffffffffffffffffffff16036119fd576040517f08c379a00000000000000000000000000000000000000000000000000000000081526004016119f490612d25565b60405180910390fd5b611a06816116b4565b15611a46576040517f08c379a0000000000000000000000000000000000000000000000000000000008152600401611a3d90612d91565b60405180910390fd5b611a5460008383600161177d565b611a5d816116b4565b15611a9d576040517f08c379a0000000000000000000000000000000000000000000000000000000008152600401611a9490612d91565b60405180910390fd5b6001600360008473ffffffffffffffffffffffffffffffffffffffff1673ffffffffffffffffffffffffffffffffffffffff16815260200190815260200160002060008282540192505081905550816002600083815260200190815260200160002060006101000a81548173ffffffffffffffffffffffffffffffffffffffff021916908373ffffffffffffffffffffffffffffffffffffffff160217905550808273ffffffffffffffffffffffffffffffffffffffff16600073ffffffffffffffffffffffffffffffffffffffff167fddf252ad1be2c89b69c2b068fc378daa952ba7f163c4a11628f55a4df523b3ef60405160405180910390a4611ba7600083836001611783565b5050565b6000604051905090565b600080fd5b600080fd5b60007fffffffff0000000000000000000000000000000000000000000000000000000082169050919050565b611bf481611bbf565b8114611bff57600080fd5b50565b600081359050611c1181611beb565b92915050565b600060208284031215611c2d57611c2c611bb5565b5b6000611c3b84828501611c02565b91505092915050565b60008115159050919050565b611c5981611c44565b82525050565b6000602082019050611c746000830184611c50565b92915050565b600081519050919050565b600082825260208201905092915050565b60005b83811015611cb4578082015181840152602081019050611c99565b60008484015250505050565b6000601f19601f8301169050919050565b6000611cdc82611c7a565b611ce68185611c85565b9350611cf6818560208601611c96565b611cff81611cc0565b840191505092915050565b60006020820190508181036000830152611d248184611cd1565b905092915050565b6000819050919050565b611d3f81611d2c565b8114611d4a57600080fd5b50565b600081359050611d5c81611d36565b92915050565b600060208284031215611d7857611d77611bb5565b5b6000611d8684828501611d4d565b91505092915050565b600073ffffffffffffffffffffffffffffffffffffffff82169050919050565b6000611dba82611d8f565b9050919050565b611dca81611daf565b82525050565b6000602082019050611de56000830184611dc1565b92915050565b611df481611daf565b8114611dff57600080fd5b50565b600081359050611e1181611deb565b92915050565b60008060408385031215611e2e57611e2d611bb5565b5b6000611e3c85828601611e02565b9250506020611e4d85828601611d4d565b9150509250929050565b600080600060608486031215611e7057611e6f611bb5565b5b6000611e7e86828701611e02565b9350506020611e8f86828701611e02565b9250506040611ea086828701611d4d565b9150509250925092565b60048110611eb757600080fd5b50565b600081359050611ec981611eaa565b92915050565b600060208284031215611ee557611ee4611bb5565b5b6000611ef384828501611eba565b91505092915050565b611f0581611d2c565b82525050565b6000602082019050611f206000830184611efc565b92915050565b600060208284031215611f3c57611f3b611bb5565b5b6000611f4a84828501611e02565b91505092915050565b6000819050919050565b6000611f78611f73611f6e84611d8f565b611f53565b611d8f565b9050919050565b6000611f8a82611f5d565b9050919050565b6000611f9c82611f7f565b9050919050565b611fac81611f91565b82525050565b6000602082019050611fc76000830184611fa3565b92915050565b611fd681611c44565b8114611fe157600080fd5b50565b600081359050611ff381611fcd565b92915050565b600080604083850312156120105761200f611bb5565b5b600061201e85828601611e02565b925050602061202f85828601611fe4565b9150509250929050565b600080fd5b600080fd5b7f4e487b7100000000000000000000000000000000000000000000000000000000600052604160045260246000fd5b61207b82611cc0565b810181811067ffffffffffffffff8211171561209a57612099612043565b5b80604052505050565b60006120ad611bab565b90506120b98282612072565b919050565b600067ffffffffffffffff8211156120d9576120d8612043565b5b6120e282611cc0565b9050602081019050919050565b82818337600083830152505050565b600061211161210c846120be565b6120a3565b90508281526020810184848401111561212d5761212c61203e565b5b6121388482856120ef565b509392505050565b600082601f83011261215557612154612039565b5b81356121658482602086016120fe565b91505092915050565b6000806000806080858703121561218857612187611bb5565b5b600061219687828801611e02565b94505060206121a787828801611e02565b93505060406121b887828801611d4d565b925050606085013567ffffffffffffffff8111156121d9576121d8611bba565b5b6121e587828801612140565b91505092959194509250565b600080fd5b600080fd5b60008083601f84011261221157612210612039565b5b8235905067ffffffffffffffff81111561222e5761222d6121f1565b5b60208301915083600182028301111561224a576122496121f6565b5b9250929050565b60008060006040848603121561226a57612269611bb5565b5b600061227886828701611eba565b935050602084013567ffffffffffffffff81111561229957612298611bba565b5b6122a5868287016121fb565b92509250509250925092565b600080604083850312156122c8576122c7611bb5565b5b60006122d685828601611e02565b92505060206122e785828601611e02565b9150509250929050565b7f4e487b7100000000000000000000000000000000000000000000000000000000600052602260045260246000fd5b6000600282049050600182168061233857607f821691505b60208210810361234b5761234a6122f1565b5b50919050565b7f4552433732313a20617070726f76616c20746f2063757272656e74206f776e6560008201527f7200000000000000000000000000000000000000000000000000000000000000602082015250565b60006123ad602183611c85565b91506123b882612351565b604082019050919050565b600060208201905081810360008301526123dc816123a0565b9050919050565b7f4552433732313a20617070726f76652063616c6c6572206973206e6f7420746f60008201527f6b656e206f776e6572206f7220617070726f76656420666f7220616c6c000000602082015250565b600061243f603d83611c85565b915061244a826123e3565b604082019050919050565b6000602082019050818103600083015261246e81612432565b9050919050565b7f4552433732313a2063616c6c6572206973206e6f7420746f6b656e206f776e6560008201527f72206f7220617070726f76656400000000000000000000000000000000000000602082015250565b60006124d1602d83611c85565b91506124dc82612475565b604082019050919050565b60006020820190508181036000830152612500816124c4565b9050919050565b7f4552433732313a20696e76616c696420746f6b656e2049440000000000000000600082015250565b600061253d601883611c85565b915061254882612507565b602082019050919050565b6000602082019050818103600083015261256c81612530565b9050919050565b7f4552433732313a2061646472657373207a65726f206973206e6f74206120766160008201527f6c6964206f776e65720000000000000000000000000000000000000000000000602082015250565b60006125cf602983611c85565b91506125da82612573565b604082019050919050565b600060208201905081810360008301526125fe816125c2565b9050919050565b7f6e6f20746f6b656e000000000000000000000000000000000000000000000000600082015250565b600061263b600883611c85565b915061264682612605565b602082019050919050565b6000602082019050818103600083015261266a8161262e565b9050919050565b7f4e487b7100000000000000000000000000000000000000000000000000000000600052602160045260246000fd5b7f4e487b7100000000000000000000000000000000000000000000000000000000600052603260045260246000fd5b7f53656e6420455448000000000000000000000000000000000000000000000000600082015250565b6000612705600883611c85565b9150612710826126cf565b602082019050919050565b60006020820190508181036000830152612734816126f8565b9050919050565b7f4e487b7100000000000000000000000000000000000000000000000000000000600052601160045260246000fd5b600061277582611d2c565b915061278083611d2c565b925082820261278e81611d2c565b915082820484148315176127a5576127a461273b565b5b5092915050565b60006040820190506127c16000830185611dc1565b6127ce6020830184611efc565b9392505050565b6000815190506127e481611d36565b92915050565b600060208284031215612800576127ff611bb5565b5b600061280e848285016127d5565b91505092915050565b600081905092915050565b50565b6000612832600083612817565b915061283d82612822565b600082019050919050565b600061285382612825565b9150819050919050565b7f5472616e73666572206661696c65640000000000000000000000000000000000600082015250565b6000612893600f83611c85565b915061289e8261285d565b602082019050919050565b600060208201905081810360008301526128c281612886565b9050919050565b60006128d482611d2c565b91507fffffffffffffffffffffffffffffffffffffffffffffffffffffffffffffffff82036129065761290561273b565b5b600182019050919050565b6004811061292257612921612671565b5b50565b600081905061293382612911565b919050565b600061294382612925565b9050919050565b61295381612938565b82525050565b60006129658385611c85565b93506129728385846120ef565b61297b83611cc0565b840190509392505050565b600060808201905061299b600083018861294a565b6129a86020830187611dc1565b6129b56040830186611efc565b81810360608301526129c8818486612959565b90509695505050505050565b7f4552433732313a207472616e736665722066726f6d20696e636f72726563742060008201527f6f776e6572000000000000000000000000000000000000000000000000000000602082015250565b6000612a30602583611c85565b9150612a3b826129d4565b604082019050919050565b60006020820190508181036000830152612a5f81612a23565b9050919050565b7f4552433732313a207472616e7366657220746f20746865207a65726f2061646460008201527f7265737300000000000000000000000000000000000000000000000000000000602082015250565b6000612ac2602483611c85565b9150612acd82612a66565b604082019050919050565b60006020820190508181036000830152612af181612ab5565b9050919050565b7f4552433732313a20617070726f766520746f2063616c6c657200000000000000600082015250565b6000612b2e601983611c85565b9150612b3982612af8565b602082019050919050565b60006020820190508181036000830152612b5d81612b21565b9050919050565b7f4552433732313a207472616e7366657220746f206e6f6e20455243373231526560008201527f63656976657220696d706c656d656e7465720000000000000000000000000000602082015250565b6000612bc0603283611c85565b9150612bcb82612b64565b604082019050919050565b60006020820190508181036000830152612bef81612bb3565b9050919050565b600081519050919050565b600082825260208201905092915050565b6000612c1d82612bf6565b612c278185612c01565b9350612c37818560208601611c96565b612c4081611cc0565b840191505092915050565b6000608082019050612c606000830187611dc1565b612c6d6020830186611dc1565b612c7a6040830185611efc565b8181036060830152612c8c8184612c12565b905095945050505050565b600081519050612ca681611beb565b92915050565b600060208284031215612cc257612cc1611bb5565b5b6000612cd084828501612c97565b91505092915050565b7f4552433732313a206d696e7420746f20746865207a65726f2061646472657373600082015250565b6000612d0f602083611c85565b9150612d1a82612cd9565b602082019050919050565b60006020820190508181036000830152612d3e81612d02565b9050919050565b7f4552433732313a20746f6b656e20616c7265616479206d696e74656400000000600082015250565b6000612d7b601c83611c85565b9150612d8682612d45565b602082019050919050565b60006020820190508181036000830152612daa81612d6e565b905091905056fea264697066735822122070659123078fc7a583ca7341359d5526baaba56583ea8c2cbd3fa4adeff1780564736f6c63430008110033",
  "linkReferences": {},
  "deployedLinkReferences": {}
}