{
  "_format": "hh-sol-artifact-1",
  "contractName": "DonationContract",
  "sourceName": "contracts/Donation.sol",
  "abi": [
    {
      "inputs": [
        {
          "internalType": "address",
          "name": "ecoAddr",
          "type": "address"
        },
        {
          "internalType": "address",
          "name": "oceansAddr",
          "type": "address"
        },
        {
          "internalType": "address",
          "name": "rainAddr",
          "type": "address"
        },
        {
          "internalType": "address",
          "name": "sequoiasAddr",
          "type": "address"
        },
        {
          "internalType": "address",
          "name": "energyAddr",
          "type": "address"
        }
      ],
      "stateMutability": "nonpayable",
      "type": "constructor"
    },
    {
      "anonymous": false,
      "inputs": [
        {
          "indexed": true,
          "internalType": "address",
          "name": "owner",
          "type": "address"
        },
        {
          "indexed": true,
          "internalType": "address",
          "name": "approved",
          "type": "address"
        },
        {
          "indexed": true,
          "internalType": "uint256",
          "name": "tokenId",
          "type": "uint256"
        }
      ],
      "name": "Approval",
      "type": "event"
    },
    {
      "anonymous": false,
      "inputs": [
        {
          "indexed": true,
          "internalType": "address",
          "name": "owner",
          "type": "address"
        },
        {
          "indexed": true,
          "internalType": "address",
          "name": "operator",
          "type": "address"
        },
        {
          "indexed": false,
          "internalType": "bool",
          "name": "approved",
          "type": "bool"
        }
      ],
      "name": "ApprovalForAll",
      "type": "event"
    },
    {
      "anonymous": false,
      "inputs": [
        {
          "indexed": false,
          "internalType": "uint256",
          "name": "_fromTokenId",
          "type": "uint256"
        },
        {
          "indexed": false,
          "internalType": "uint256",
          "name": "_toTokenId",
          "type": "uint256"
        }
      ],
      "name": "BatchMetadataUpdate",
      "type": "event"
    },
    {
      "anonymous": false,
      "inputs": [
        {
          "indexed": false,
          "internalType": "enum DonationContract.Foundation",
          "name": "f",
          "type": "uint8"
        },
        {
          "indexed": false,
          "internalType": "address",
          "name": "sender",
          "type": "address"
        },
        {
          "indexed": false,
          "internalType": "uint256",
          "name": "amount",
          "type": "uint256"
        },
        {
          "indexed": false,
          "internalType": "string",
          "name": "msg_",
          "type": "string"
        }
      ],
      "name": "DonationMade",
      "type": "event"
    },
    {
      "anonymous": false,
      "inputs": [
        {
          "indexed": false,
          "internalType": "uint256",
          "name": "_tokenId",
          "type": "uint256"
        }
      ],
      "name": "MetadataUpdate",
      "type": "event"
    },
    {
      "anonymous": false,
      "inputs": [
        {
          "indexed": false,
          "internalType": "address",
          "name": "donor",
          "type": "address"
        },
        {
          "indexed": false,
          "internalType": "uint256",
          "name": "bal",
          "type": "uint256"
        }
      ],
      "name": "TokenBalanceUpdated",
      "type": "event"
    },
    {
      "anonymous": false,
      "inputs": [
        {
          "indexed": true,
          "internalType": "address",
          "name": "from",
          "type": "address"
        },
        {
          "indexed": true,
          "internalType": "address",
          "name": "to",
          "type": "address"
        },
        {
          "indexed": true,
          "internalType": "uint256",
          "name": "tokenId",
          "type": "uint256"
        }
      ],
      "name": "Transfer",
      "type": "event"
    },
    {
      "inputs": [
        {
          "internalType": "address",
          "name": "to",
          "type": "address"
        },
        {
          "internalType": "uint256",
          "name": "tokenId",
          "type": "uint256"
        }
      ],
      "name": "approve",
      "outputs": [],
      "stateMutability": "nonpayable",
      "type": "function"
    },
    {
      "inputs": [
        {
          "internalType": "address",
          "name": "owner",
          "type": "address"
        }
      ],
      "name": "balanceOf",
      "outputs": [
        {
          "internalType": "uint256",
          "name": "",
          "type": "uint256"
        }
      ],
      "stateMutability": "view",
      "type": "function"
    },
    {
      "inputs": [
        {
          "internalType": "enum DonationContract.Foundation",
          "name": "f",
          "type": "uint8"
        },
        {
          "internalType": "string",
          "name": "message",
          "type": "string"
        }
      ],
      "name": "donate",
      "outputs": [],
      "stateMutability": "payable",
      "type": "function"
    },
    {
      "inputs": [
        {
          "internalType": "enum DonationContract.Foundation",
          "name": "f",
          "type": "uint8"
        },
        {
          "internalType": "string",
          "name": "message",
          "type": "string"
        },
        {
          "internalType": "address",
          "name": "donor",
          "type": "address"
        }
      ],
      "name": "donateOnBehalf",
      "outputs": [],
      "stateMutability": "payable",
      "type": "function"
    },
    {
      "inputs": [],
      "name": "eco",
      "outputs": [
        {
          "internalType": "contract EcoCoin",
          "name": "",
          "type": "address"
        }
      ],
      "stateMutability": "view",
      "type": "function"
    },
    {
      "inputs": [
        {
          "internalType": "enum DonationContract.Foundation",
          "name": "",
          "type": "uint8"
        }
      ],
      "name": "foundationAddresses",
      "outputs": [
        {
          "internalType": "address",
          "name": "",
          "type": "address"
        }
      ],
      "stateMutability": "view",
      "type": "function"
    },
    {
      "inputs": [
        {
          "internalType": "uint256",
          "name": "tokenId",
          "type": "uint256"
        }
      ],
      "name": "getApproved",
      "outputs": [
        {
          "internalType": "address",
          "name": "",
          "type": "address"
        }
      ],
      "stateMutability": "view",
      "type": "function"
    },
    {
      "inputs": [
        {
          "internalType": "address",
          "name": "owner",
          "type": "address"
        },
        {
          "internalType": "address",
          "name": "operator",
          "type": "address"
        }
      ],
      "name": "isApprovedForAll",
      "outputs": [
        {
          "internalType": "bool",
          "name": "",
          "type": "bool"
        }
      ],
      "stateMutability": "view",
      "type": "function"
    },
    {
      "inputs": [],
      "name": "name",
      "outputs": [
        {
          "internalType": "string",
          "name": "",
          "type": "string"
        }
      ],
      "stateMutability": "view",
      "type": "function"
    },
    {
      "inputs": [],
      "name": "nextId",
      "outputs": [
        {
          "internalType": "uint256",
          "name": "",
          "type": "uint256"
        }
      ],
      "stateMutability": "view",
      "type": "function"
    },
    {
      "inputs": [],
      "name": "owner",
      "outputs": [
        {
          "internalType": "address",
          "name": "",
          "type": "address"
        }
      ],
      "stateMutability": "view",
      "type": "function"
    },
    {
      "inputs": [
        {
          "internalType": "uint256",
          "name": "tokenId",
          "type": "uint256"
        }
      ],
      "name": "ownerOf",
      "outputs": [
        {
          "internalType": "address",
          "name": "",
          "type": "address"
        }
      ],
      "stateMutability": "view",
      "type": "function"
    },
    {
      "inputs": [
        {
          "internalType": "address",
          "name": "from",
          "type": "address"
        },
        {
          "internalType": "address",
          "name": "to",
          "type": "address"
        },
        {
          "internalType": "uint256",
          "name": "tokenId",
          "type": "uint256"
        }
      ],
      "name": "safeTransferFrom",
      "outputs": [],
      "stateMutability": "nonpayable",
      "type": "function"
    },
    {
      "inputs": [
        {
          "internalType": "address",
          "name": "from",
          "type": "address"
        },
        {
          "internalType": "address",
          "name": "to",
          "type": "address"
        },
        {
          "internalType": "uint256",
          "name": "tokenId",
          "type": "uint256"
        },
        {
          "internalType": "bytes",
          "name": "data",
          "type": "bytes"
        }
      ],
      "name": "safeTransferFrom",
      "outputs": [],
      "stateMutability": "nonpayable",
      "type": "function"
    },
    {
      "inputs": [
        {
          "internalType": "address",
          "name": "operator",
          "type": "address"
        },
        {
          "internalType": "bool",
          "name": "approved",
          "type": "bool"
        }
      ],
      "name": "setApprovalForAll",
      "outputs": [],
      "stateMutability": "nonpayable",
      "type": "function"
    },
    {
      "inputs": [
        {
          "internalType": "bytes4",
          "name": "interfaceId",
          "type": "bytes4"
        }
      ],
      "name": "supportsInterface",
      "outputs": [
        {
          "internalType": "bool",
          "name": "",
          "type": "bool"
        }
      ],
      "stateMutability": "view",
      "type": "function"
    },
    {
      "inputs": [],
      "name": "symbol",
      "outputs": [
        {
          "internalType": "string",
          "name": "",
          "type": "string"
        }
      ],
      "stateMutability": "view",
      "type": "function"
    },
    {
      "inputs": [
        {
          "internalType": "uint256",
          "name": "id",
          "type": "uint256"
        }
      ],
      "name": "tokenURI",
      "outputs": [
        {
          "internalType": "string",
          "name": "",
          "type": "string"
        }
      ],
      "stateMutability": "view",
      "type": "function"
    },
    {
      "inputs": [
        {
          "internalType": "address",
          "name": "from",
          "type": "address"
        },
        {
          "internalType": "address",
          "name": "to",
          "type": "address"
        },
        {
          "internalType": "uint256",
          "name": "tokenId",
          "type": "uint256"
        }
      ],
      "name": "transferFrom",
      "outputs": [],
      "stateMutability": "nonpayable",
      "type": "function"
    },
    {
      "stateMutability": "payable",
      "type": "receive"
    }
  ],
  "bytecode": "0x60806040526001600f553480156200001657600080fd5b5060405162003c3f38038062003c3f83398181016040528101906200003c91906200052f565b6040518060400160405280601281526020017f45636f20446f6e6174696f6e20426164676500000000000000000000000000008152506040518060400160405280600981526020017f45434f2d424144474500000000000000000000000000000000000000000000008152508160009081620000b9919062000831565b508060019081620000cb919062000831565b50505033600860006101000a81548173ffffffffffffffffffffffffffffffffffffffff021916908373ffffffffffffffffffffffffffffffffffffffff16021790555084600760006101000a81548173ffffffffffffffffffffffffffffffffffffffff021916908373ffffffffffffffffffffffffffffffffffffffff16021790555083600960008060038111156200016b576200016a62000918565b5b600381111562000180576200017f62000918565b5b815260200190815260200160002060006101000a81548173ffffffffffffffffffffffffffffffffffffffff021916908373ffffffffffffffffffffffffffffffffffffffff160217905550826009600060016003811115620001e857620001e762000918565b5b6003811115620001fd57620001fc62000918565b5b815260200190815260200160002060006101000a81548173ffffffffffffffffffffffffffffffffffffffff021916908373ffffffffffffffffffffffffffffffffffffffff16021790555081600960006002600381111562000265576200026462000918565b5b60038111156200027a576200027962000918565b5b815260200190815260200160002060006101000a81548173ffffffffffffffffffffffffffffffffffffffff021916908373ffffffffffffffffffffffffffffffffffffffff1602179055508060096000600380811115620002e157620002e062000918565b5b6003811115620002f657620002f562000918565b5b815260200190815260200160002060006101000a81548173ffffffffffffffffffffffffffffffffffffffff021916908373ffffffffffffffffffffffffffffffffffffffff1602179055506040518060400160405280601381526020017f2f6261646765732f6f6365616e732e6a736f6e00000000000000000000000000815250600b60006004811062000390576200038f62000947565b5b0190816200039f919062000831565b506040518060400160405280601381526020017f2f6261646765732f6f6365616e732e6a736f6e00000000000000000000000000815250600b600160048110620003ee57620003ed62000947565b5b019081620003fd919062000831565b506040518060400160405280601381526020017f2f6261646765732f6f6365616e732e6a736f6e00000000000000000000000000815250600b6002600481106200044c576200044b62000947565b5b0190816200045b919062000831565b506040518060400160405280601381526020017f2f6261646765732f6f6365616e732e6a736f6e00000000000000000000000000815250600b600360048110620004aa57620004a962000947565b5b019081620004b9919062000831565b50505050505062000976565b600080fd5b600073ffffffffffffffffffffffffffffffffffffffff82169050919050565b6000620004f782620004ca565b9050919050565b6200050981620004ea565b81146200051557600080fd5b50565b6000815190506200052981620004fe565b92915050565b600080600080600060a086880312156200054e576200054d620004c5565b5b60006200055e8882890162000518565b9550506020620005718882890162000518565b9450506040620005848882890162000518565b9350506060620005978882890162000518565b9250506080620005aa8882890162000518565b9150509295509295909350565b600081519050919050565b7f4e487b7100000000000000000000000000000000000000000000000000000000600052604160045260246000fd5b7f4e487b7100000000000000000000000000000000000000000000000000000000600052602260045260246000fd5b600060028204905060018216806200063957607f821691505b6020821081036200064f576200064e620005f1565b5b50919050565b60008190508160005260206000209050919050565b60006020601f8301049050919050565b600082821b905092915050565b600060088302620006b97fffffffffffffffffffffffffffffffffffffffffffffffffffffffffffffffff826200067a565b620006c586836200067a565b95508019841693508086168417925050509392505050565b6000819050919050565b6000819050919050565b6000620007126200070c6200070684620006dd565b620006e7565b620006dd565b9050919050565b6000819050919050565b6200072e83620006f1565b620007466200073d8262000719565b84845462000687565b825550505050565b600090565b6200075d6200074e565b6200076a81848462000723565b505050565b5b8181101562000792576200078660008262000753565b60018101905062000770565b5050565b601f821115620007e157620007ab8162000655565b620007b6846200066a565b81016020851015620007c6578190505b620007de620007d5856200066a565b8301826200076f565b50505b505050565b600082821c905092915050565b60006200080660001984600802620007e6565b1980831691505092915050565b6000620008218383620007f3565b9150826002028217905092915050565b6200083c82620005b7565b67ffffffffffffffff811115620008585762000857620005c2565b5b62000864825462000620565b6200087182828562000796565b600060209050601f831160018114620008a9576000841562000894578287015190505b620008a0858262000813565b86555062000910565b601f198416620008b98662000655565b60005b82811015620008e357848901518255600182019150602085019450602081019050620008bc565b86831015620009035784890151620008ff601f891682620007f3565b8355505b6001600288020188555050505b505050505050565b7f4e487b7100000000000000000000000000000000000000000000000000000000600052602160045260246000fd5b7f4e487b7100000000000000000000000000000000000000000000000000000000600052603260045260246000fd5b6132b980620009866000396000f3fe6080604052600436106101185760003560e01c80636352211e116100a0578063a22cb46511610064578063a22cb465146103c3578063b88d4fde146103ec578063c87b56dd14610415578063ca8b030914610452578063e985e9c51461046e5761011f565b80636352211e146102c857806370a08231146103055780638da5cb5b1461034257806394e63e631461036d57806395d89b41146103985761011f565b806323b872dd116100e757806323b872dd146101f25780632eade7e81461021b57806342842e0e1461025857806346a6800a1461028157806361b8ce8c1461029d5761011f565b806301ffc9a71461012457806306fdde0314610161578063081812fc1461018c578063095ea7b3146101c95761011f565b3661011f57005b600080fd5b34801561013057600080fd5b5061014b60048036038101906101469190612009565b6104ab565b6040516101589190612051565b60405180910390f35b34801561016d57600080fd5b5061017661050c565b60405161018391906120fc565b60405180910390f35b34801561019857600080fd5b506101b360048036038101906101ae9190612154565b61059e565b6040516101c091906121c2565b60405180910390f35b3480156101d557600080fd5b506101f060048036038101906101eb9190612209565b6105e4565b005b3480156101fe57600080fd5b5061021960048036038101906102149190612249565b6106fb565b005b34801561022757600080fd5b50610242600480360381019061023d91906122c1565b61075b565b60405161024f91906121c2565b60405180910390f35b34801561026457600080fd5b5061027f600480360381019061027a9190612249565b61078e565b005b61029b60048036038101906102969190612353565b6107ae565b005b3480156102a957600080fd5b506102b2610b79565b6040516102bf91906123d6565b60405180910390f35b3480156102d457600080fd5b506102ef60048036038101906102ea9190612154565b610b7f565b6040516102fc91906121c2565b60405180910390f35b34801561031157600080fd5b5061032c600480360381019061032791906123f1565b610c05565b60405161033991906123d6565b60405180910390f35b34801561034e57600080fd5b50610357610cbc565b60405161036491906121c2565b60405180910390f35b34801561037957600080fd5b50610382610ce2565b60405161038f919061247d565b60405180910390f35b3480156103a457600080fd5b506103ad610d08565b6040516103ba91906120fc565b60405180910390f35b3480156103cf57600080fd5b506103ea60048036038101906103e591906124c4565b610d9a565b005b3480156103f857600080fd5b50610413600480360381019061040e9190612634565b610db0565b005b34801561042157600080fd5b5061043c60048036038101906104379190612154565b610e12565b60405161044991906120fc565b60405180910390f35b61046c600480360381019061046791906126b7565b610f36565b005b34801561047a57600080fd5b5061049560048036038101906104909190612717565b611291565b6040516104a29190612051565b60405180910390f35b6000634906490660e01b7bffffffffffffffffffffffffffffffffffffffffffffffffffffffff1916827bffffffffffffffffffffffffffffffffffffffffffffffffffffffff19161480610505575061050482611325565b5b9050919050565b60606000805461051b90612786565b80601f016020809104026020016040519081016040528092919081815260200182805461054790612786565b80156105945780601f1061056957610100808354040283529160200191610594565b820191906000526020600020905b81548152906001019060200180831161057757829003601f168201915b5050505050905090565b60006105a982611407565b6004600083815260200190815260200160002060009054906101000a900473ffffffffffffffffffffffffffffffffffffffff169050919050565b60006105ef82610b7f565b90508073ffffffffffffffffffffffffffffffffffffffff168373ffffffffffffffffffffffffffffffffffffffff160361065f576040517f08c379a000000000000000000000000000000000000000000000000000000000815260040161065690612829565b60405180910390fd5b8073ffffffffffffffffffffffffffffffffffffffff1661067e611452565b73ffffffffffffffffffffffffffffffffffffffff1614806106ad57506106ac816106a7611452565b611291565b5b6106ec576040517f08c379a00000000000000000000000000000000000000000000000000000000081526004016106e3906128bb565b60405180910390fd5b6106f6838361145a565b505050565b61070c610706611452565b82611513565b61074b576040517f08c379a00000000000000000000000000000000000000000000000000000000081526004016107429061294d565b60405180910390fd5b6107568383836115a8565b505050565b60096020528060005260406000206000915054906101000a900473ffffffffffffffffffffffffffffffffffffffff1681565b6107a983838360405180602001604052806000815250610db0565b505050565b600034116107f1576040517f08c379a00000000000000000000000000000000000000000000000000000000081526004016107e8906129b9565b60405180910390fd5b600073ffffffffffffffffffffffffffffffffffffffff168173ffffffffffffffffffffffffffffffffffffffff1603610860576040517f08c379a000000000000000000000000000000000000000000000000000000000815260040161085790612a25565b60405180910390fd5b600760009054906101000a900473ffffffffffffffffffffffffffffffffffffffff1673ffffffffffffffffffffffffffffffffffffffff1663f0dda65c82600a346108ac9190612a74565b6040518363ffffffff1660e01b81526004016108c9929190612ab6565b600060405180830381600087803b1580156108e357600080fd5b505af11580156108f7573d6000803e3d6000fd5b505050507fe45c01138e54bb610afd62c8b625077319978702155f247426c51b533c04c5d281600760009054906101000a900473ffffffffffffffffffffffffffffffffffffffff1673ffffffffffffffffffffffffffffffffffffffff166370a08231846040518263ffffffff1660e01b815260040161097891906121c2565b602060405180830381865afa158015610995573d6000803e3d6000fd5b505050506040513d601f19601f820116820180604052508101906109b99190612af4565b6040516109c7929190612ab6565b60405180910390a16000600960008660038111156109e8576109e7612b21565b5b60038111156109fa576109f9612b21565b5b815260200190815260200160002060009054906101000a900473ffffffffffffffffffffffffffffffffffffffff1673ffffffffffffffffffffffffffffffffffffffff1634604051610a4c90612b81565b60006040518083038185875af1925050503d8060008114610a89576040519150601f19603f3d011682016040523d82523d6000602084013e610a8e565b606091505b5050905080610ad2576040517f08c379a0000000000000000000000000000000000000000000000000000000008152600401610ac990612be2565b60405180910390fd5b6000600f6000815480929190610ae790612c02565b919050559050610af783826118a1565b85600a600083815260200190815260200160002060006101000a81548160ff02191690836003811115610b2d57610b2c612b21565b5b02179055507f67c352d9d4655f7c490cc59a09b0d9d254a2cdbfc6f6b5f91c539573bb1327dc8684348888604051610b69959493929190612cbf565b60405180910390a1505050505050565b600f5481565b600080610b8b836118bf565b9050600073ffffffffffffffffffffffffffffffffffffffff168173ffffffffffffffffffffffffffffffffffffffff1603610bfc576040517f08c379a0000000000000000000000000000000000000000000000000000000008152600401610bf390612d59565b60405180910390fd5b80915050919050565b60008073ffffffffffffffffffffffffffffffffffffffff168273ffffffffffffffffffffffffffffffffffffffff1603610c75576040517f08c379a0000000000000000000000000000000000000000000000000000000008152600401610c6c90612deb565b60405180910390fd5b600360008373ffffffffffffffffffffffffffffffffffffffff1673ffffffffffffffffffffffffffffffffffffffff168152602001908152602001600020549050919050565b600860009054906101000a900473ffffffffffffffffffffffffffffffffffffffff1681565b600760009054906101000a900473ffffffffffffffffffffffffffffffffffffffff1681565b606060018054610d1790612786565b80601f0160208091040260200160405190810160405280929190818152602001828054610d4390612786565b8015610d905780601f10610d6557610100808354040283529160200191610d90565b820191906000526020600020905b815481529060010190602001808311610d7357829003601f168201915b5050505050905090565b610dac610da5611452565b83836118fc565b5050565b610dc1610dbb611452565b83611513565b610e00576040517f08c379a0000000000000000000000000000000000000000000000000000000008152600401610df79061294d565b60405180910390fd5b610e0c84848484611a68565b50505050565b6060610e1d82611ac4565b610e5c576040517f08c379a0000000000000000000000000000000000000000000000000000000008152600401610e5390612e57565b60405180910390fd5b600b600a600084815260200190815260200160002060009054906101000a900460ff166003811115610e9157610e90612b21565b5b60ff1660048110610ea557610ea4612e77565b5b018054610eb190612786565b80601f0160208091040260200160405190810160405280929190818152602001828054610edd90612786565b8015610f2a5780601f10610eff57610100808354040283529160200191610f2a565b820191906000526020600020905b815481529060010190602001808311610f0d57829003601f168201915b50505050509050919050565b60003411610f79576040517f08c379a0000000000000000000000000000000000000000000000000000000008152600401610f70906129b9565b60405180910390fd5b600760009054906101000a900473ffffffffffffffffffffffffffffffffffffffff1673ffffffffffffffffffffffffffffffffffffffff1663f0dda65c33600a34610fc59190612a74565b6040518363ffffffff1660e01b8152600401610fe2929190612ab6565b600060405180830381600087803b158015610ffc57600080fd5b505af1158015611010573d6000803e3d6000fd5b505050507fe45c01138e54bb610afd62c8b625077319978702155f247426c51b533c04c5d233600760009054906101000a900473ffffffffffffffffffffffffffffffffffffffff1673ffffffffffffffffffffffffffffffffffffffff166370a08231336040518263ffffffff1660e01b815260040161109191906121c2565b602060405180830381865afa1580156110ae573d6000803e3d6000fd5b505050506040513d601f19601f820116820180604052508101906110d29190612af4565b6040516110e0929190612ab6565b60405180910390a160006009600085600381111561110157611100612b21565b5b600381111561111357611112612b21565b5b815260200190815260200160002060009054906101000a900473ffffffffffffffffffffffffffffffffffffffff1673ffffffffffffffffffffffffffffffffffffffff163460405161116590612b81565b60006040518083038185875af1925050503d80600081146111a2576040519150601f19603f3d011682016040523d82523d6000602084013e6111a7565b606091505b50509050806111eb576040517f08c379a00000000000000000000000000000000000000000000000000000000081526004016111e290612be2565b60405180910390fd5b6000600f600081548092919061120090612c02565b91905055905061121033826118a1565b84600a600083815260200190815260200160002060006101000a81548160ff0219169083600381111561124657611245612b21565b5b02179055507f67c352d9d4655f7c490cc59a09b0d9d254a2cdbfc6f6b5f91c539573bb1327dc8533348787604051611282959493929190612cbf565b60405180910390a15050505050565b6000600560008473ffffffffffffffffffffffffffffffffffffffff1673ffffffffffffffffffffffffffffffffffffffff16815260200190815260200160002060008373ffffffffffffffffffffffffffffffffffffffff1673ffffffffffffffffffffffffffffffffffffffff16815260200190815260200160002060009054906101000a900460ff16905092915050565b60007f80ac58cd000000000000000000000000000000000000000000000000000000007bffffffffffffffffffffffffffffffffffffffffffffffffffffffff1916827bffffffffffffffffffffffffffffffffffffffffffffffffffffffff191614806113f057507f5b5e139f000000000000000000000000000000000000000000000000000000007bffffffffffffffffffffffffffffffffffffffffffffffffffffffff1916827bffffffffffffffffffffffffffffffffffffffffffffffffffffffff1916145b8061140057506113ff82611b05565b5b9050919050565b61141081611ac4565b61144f576040517f08c379a000000000000000000000000000000000000000000000000000000000815260040161144690612d59565b60405180910390fd5b50565b600033905090565b816004600083815260200190815260200160002060006101000a81548173ffffffffffffffffffffffffffffffffffffffff021916908373ffffffffffffffffffffffffffffffffffffffff160217905550808273ffffffffffffffffffffffffffffffffffffffff166114cd83610b7f565b73ffffffffffffffffffffffffffffffffffffffff167f8c5be1e5ebec7d5bd14f71427d1e84f3dd0314c0f7b2291e5b200ac8c7c3b92560405160405180910390a45050565b60008061151f83610b7f565b90508073ffffffffffffffffffffffffffffffffffffffff168473ffffffffffffffffffffffffffffffffffffffff16148061156157506115608185611291565b5b8061159f57508373ffffffffffffffffffffffffffffffffffffffff166115878461059e565b73ffffffffffffffffffffffffffffffffffffffff16145b91505092915050565b8273ffffffffffffffffffffffffffffffffffffffff166115c882610b7f565b73ffffffffffffffffffffffffffffffffffffffff161461161e576040517f08c379a000000000000000000000000000000000000000000000000000000000815260040161161590612f18565b60405180910390fd5b600073ffffffffffffffffffffffffffffffffffffffff168273ffffffffffffffffffffffffffffffffffffffff160361168d576040517f08c379a000000000000000000000000000000000000000000000000000000000815260040161168490612faa565b60405180910390fd5b61169a8383836001611b6f565b8273ffffffffffffffffffffffffffffffffffffffff166116ba82610b7f565b73ffffffffffffffffffffffffffffffffffffffff1614611710576040517f08c379a000000000000000000000000000000000000000000000000000000000815260040161170790612f18565b60405180910390fd5b6004600082815260200190815260200160002060006101000a81549073ffffffffffffffffffffffffffffffffffffffff02191690556001600360008573ffffffffffffffffffffffffffffffffffffffff1673ffffffffffffffffffffffffffffffffffffffff168152602001908152602001600020600082825403925050819055506001600360008473ffffffffffffffffffffffffffffffffffffffff1673ffffffffffffffffffffffffffffffffffffffff16815260200190815260200160002060008282540192505081905550816002600083815260200190815260200160002060006101000a81548173ffffffffffffffffffffffffffffffffffffffff021916908373ffffffffffffffffffffffffffffffffffffffff160217905550808273ffffffffffffffffffffffffffffffffffffffff168473ffffffffffffffffffffffffffffffffffffffff167fddf252ad1be2c89b69c2b068fc378daa952ba7f163c4a11628f55a4df523b3ef60405160405180910390a461189c8383836001611b75565b505050565b6118bb828260405180602001604052806000815250611b7b565b5050565b60006002600083815260200190815260200160002060009054906101000a900473ffffffffffffffffffffffffffffffffffffffff169050919050565b8173ffffffffffffffffffffffffffffffffffffffff168373ffffffffffffffffffffffffffffffffffffffff160361196a576040517f08c379a000000000000000000000000000000000000000000000000000000000815260040161196190613016565b60405180910390fd5b80600560008573ffffffffffffffffffffffffffffffffffffffff1673ffffffffffffffffffffffffffffffffffffffff16815260200190815260200160002060008473ffffffffffffffffffffffffffffffffffffffff1673ffffffffffffffffffffffffffffffffffffffff16815260200190815260200160002060006101000a81548160ff0219169083151502179055508173ffffffffffffffffffffffffffffffffffffffff168373ffffffffffffffffffffffffffffffffffffffff167f17307eab39ab6107e8899845ad3d59bd9653f200f220920489ca2b5937696c3183604051611a5b9190612051565b60405180910390a3505050565b611a738484846115a8565b611a7f84848484611bd6565b611abe576040517f08c379a0000000000000000000000000000000000000000000000000000000008152600401611ab5906130a8565b60405180910390fd5b50505050565b60008073ffffffffffffffffffffffffffffffffffffffff16611ae6836118bf565b73ffffffffffffffffffffffffffffffffffffffff1614159050919050565b60007f01ffc9a7000000000000000000000000000000000000000000000000000000007bffffffffffffffffffffffffffffffffffffffffffffffffffffffff1916827bffffffffffffffffffffffffffffffffffffffffffffffffffffffff1916149050919050565b50505050565b50505050565b611b858383611d5d565b611b926000848484611bd6565b611bd1576040517f08c379a0000000000000000000000000000000000000000000000000000000008152600401611bc8906130a8565b60405180910390fd5b505050565b6000611bf78473ffffffffffffffffffffffffffffffffffffffff16611f7a565b15611d50578373ffffffffffffffffffffffffffffffffffffffff1663150b7a02611c20611452565b8786866040518563ffffffff1660e01b8152600401611c42949392919061311d565b6020604051808303816000875af1925050508015611c7e57506040513d601f19601f82011682018060405250810190611c7b919061317e565b60015b611d00573d8060008114611cae576040519150601f19603f3d011682016040523d82523d6000602084013e611cb3565b606091505b506000815103611cf8576040517f08c379a0000000000000000000000000000000000000000000000000000000008152600401611cef906130a8565b60405180910390fd5b805181602001fd5b63150b7a0260e01b7bffffffffffffffffffffffffffffffffffffffffffffffffffffffff1916817bffffffffffffffffffffffffffffffffffffffffffffffffffffffff191614915050611d55565b600190505b949350505050565b600073ffffffffffffffffffffffffffffffffffffffff168273ffffffffffffffffffffffffffffffffffffffff1603611dcc576040517f08c379a0000000000000000000000000000000000000000000000000000000008152600401611dc3906131f7565b60405180910390fd5b611dd581611ac4565b15611e15576040517f08c379a0000000000000000000000000000000000000000000000000000000008152600401611e0c90613263565b60405180910390fd5b611e23600083836001611b6f565b611e2c81611ac4565b15611e6c576040517f08c379a0000000000000000000000000000000000000000000000000000000008152600401611e6390613263565b60405180910390fd5b6001600360008473ffffffffffffffffffffffffffffffffffffffff1673ffffffffffffffffffffffffffffffffffffffff16815260200190815260200160002060008282540192505081905550816002600083815260200190815260200160002060006101000a81548173ffffffffffffffffffffffffffffffffffffffff021916908373ffffffffffffffffffffffffffffffffffffffff160217905550808273ffffffffffffffffffffffffffffffffffffffff16600073ffffffffffffffffffffffffffffffffffffffff167fddf252ad1be2c89b69c2b068fc378daa952ba7f163c4a11628f55a4df523b3ef60405160405180910390a4611f76600083836001611b75565b5050565b6000808273ffffffffffffffffffffffffffffffffffffffff163b119050919050565b6000604051905090565b600080fd5b600080fd5b60007fffffffff0000000000000000000000000000000000000000000000000000000082169050919050565b611fe681611fb1565b8114611ff157600080fd5b50565b60008135905061200381611fdd565b92915050565b60006020828403121561201f5761201e611fa7565b5b600061202d84828501611ff4565b91505092915050565b60008115159050919050565b61204b81612036565b82525050565b60006020820190506120666000830184612042565b92915050565b600081519050919050565b600082825260208201905092915050565b60005b838110156120a657808201518184015260208101905061208b565b60008484015250505050565b6000601f19601f8301169050919050565b60006120ce8261206c565b6120d88185612077565b93506120e8818560208601612088565b6120f1816120b2565b840191505092915050565b6000602082019050818103600083015261211681846120c3565b905092915050565b6000819050919050565b6121318161211e565b811461213c57600080fd5b50565b60008135905061214e81612128565b92915050565b60006020828403121561216a57612169611fa7565b5b60006121788482850161213f565b91505092915050565b600073ffffffffffffffffffffffffffffffffffffffff82169050919050565b60006121ac82612181565b9050919050565b6121bc816121a1565b82525050565b60006020820190506121d760008301846121b3565b92915050565b6121e6816121a1565b81146121f157600080fd5b50565b600081359050612203816121dd565b92915050565b600080604083850312156122205761221f611fa7565b5b600061222e858286016121f4565b925050602061223f8582860161213f565b9150509250929050565b60008060006060848603121561226257612261611fa7565b5b6000612270868287016121f4565b9350506020612281868287016121f4565b92505060406122928682870161213f565b9150509250925092565b600481106122a957600080fd5b50565b6000813590506122bb8161229c565b92915050565b6000602082840312156122d7576122d6611fa7565b5b60006122e5848285016122ac565b91505092915050565b600080fd5b600080fd5b600080fd5b60008083601f840112612313576123126122ee565b5b8235905067ffffffffffffffff8111156123305761232f6122f3565b5b60208301915083600182028301111561234c5761234b6122f8565b5b9250929050565b6000806000806060858703121561236d5761236c611fa7565b5b600061237b878288016122ac565b945050602085013567ffffffffffffffff81111561239c5761239b611fac565b5b6123a8878288016122fd565b935093505060406123bb878288016121f4565b91505092959194509250565b6123d08161211e565b82525050565b60006020820190506123eb60008301846123c7565b92915050565b60006020828403121561240757612406611fa7565b5b6000612415848285016121f4565b91505092915050565b6000819050919050565b600061244361243e61243984612181565b61241e565b612181565b9050919050565b600061245582612428565b9050919050565b60006124678261244a565b9050919050565b6124778161245c565b82525050565b6000602082019050612492600083018461246e565b92915050565b6124a181612036565b81146124ac57600080fd5b50565b6000813590506124be81612498565b92915050565b600080604083850312156124db576124da611fa7565b5b60006124e9858286016121f4565b92505060206124fa858286016124af565b9150509250929050565b600080fd5b7f4e487b7100000000000000000000000000000000000000000000000000000000600052604160045260246000fd5b612541826120b2565b810181811067ffffffffffffffff821117156125605761255f612509565b5b80604052505050565b6000612573611f9d565b905061257f8282612538565b919050565b600067ffffffffffffffff82111561259f5761259e612509565b5b6125a8826120b2565b9050602081019050919050565b82818337600083830152505050565b60006125d76125d284612584565b612569565b9050828152602081018484840111156125f3576125f2612504565b5b6125fe8482856125b5565b509392505050565b600082601f83011261261b5761261a6122ee565b5b813561262b8482602086016125c4565b91505092915050565b6000806000806080858703121561264e5761264d611fa7565b5b600061265c878288016121f4565b945050602061266d878288016121f4565b935050604061267e8782880161213f565b925050606085013567ffffffffffffffff81111561269f5761269e611fac565b5b6126ab87828801612606565b91505092959194509250565b6000806000604084860312156126d0576126cf611fa7565b5b60006126de868287016122ac565b935050602084013567ffffffffffffffff8111156126ff576126fe611fac565b5b61270b868287016122fd565b92509250509250925092565b6000806040838503121561272e5761272d611fa7565b5b600061273c858286016121f4565b925050602061274d858286016121f4565b9150509250929050565b7f4e487b7100000000000000000000000000000000000000000000000000000000600052602260045260246000fd5b6000600282049050600182168061279e57607f821691505b6020821081036127b1576127b0612757565b5b50919050565b7f4552433732313a20617070726f76616c20746f2063757272656e74206f776e6560008201527f7200000000000000000000000000000000000000000000000000000000000000602082015250565b6000612813602183612077565b915061281e826127b7565b604082019050919050565b6000602082019050818103600083015261284281612806565b9050919050565b7f4552433732313a20617070726f76652063616c6c6572206973206e6f7420746f60008201527f6b656e206f776e6572206f7220617070726f76656420666f7220616c6c000000602082015250565b60006128a5603d83612077565b91506128b082612849565b604082019050919050565b600060208201905081810360008301526128d481612898565b9050919050565b7f4552433732313a2063616c6c6572206973206e6f7420746f6b656e206f776e6560008201527f72206f7220617070726f76656400000000000000000000000000000000000000602082015250565b6000612937602d83612077565b9150612942826128db565b604082019050919050565b600060208201905081810360008301526129668161292a565b9050919050565b7f53656e6420455448000000000000000000000000000000000000000000000000600082015250565b60006129a3600883612077565b91506129ae8261296d565b602082019050919050565b600060208201905081810360008301526129d281612996565b9050919050565b7f496e76616c696420646f6e6f7220616464726573730000000000000000000000600082015250565b6000612a0f601583612077565b9150612a1a826129d9565b602082019050919050565b60006020820190508181036000830152612a3e81612a02565b9050919050565b7f4e487b7100000000000000000000000000000000000000000000000000000000600052601160045260246000fd5b6000612a7f8261211e565b9150612a8a8361211e565b9250828202612a988161211e565b91508282048414831517612aaf57612aae612a45565b5b5092915050565b6000604082019050612acb60008301856121b3565b612ad860208301846123c7565b9392505050565b600081519050612aee81612128565b92915050565b600060208284031215612b0a57612b09611fa7565b5b6000612b1884828501612adf565b91505092915050565b7f4e487b7100000000000000000000000000000000000000000000000000000000600052602160045260246000fd5b600081905092915050565b50565b6000612b6b600083612b50565b9150612b7682612b5b565b600082019050919050565b6000612b8c82612b5e565b9150819050919050565b7f5472616e73666572206661696c65640000000000000000000000000000000000600082015250565b6000612bcc600f83612077565b9150612bd782612b96565b602082019050919050565b60006020820190508181036000830152612bfb81612bbf565b9050919050565b6000612c0d8261211e565b91507fffffffffffffffffffffffffffffffffffffffffffffffffffffffffffffffff8203612c3f57612c3e612a45565b5b600182019050919050565b60048110612c5b57612c5a612b21565b5b50565b6000819050612c6c82612c4a565b919050565b6000612c7c82612c5e565b9050919050565b612c8c81612c71565b82525050565b6000612c9e8385612077565b9350612cab8385846125b5565b612cb4836120b2565b840190509392505050565b6000608082019050612cd46000830188612c83565b612ce160208301876121b3565b612cee60408301866123c7565b8181036060830152612d01818486612c92565b90509695505050505050565b7f4552433732313a20696e76616c696420746f6b656e2049440000000000000000600082015250565b6000612d43601883612077565b9150612d4e82612d0d565b602082019050919050565b60006020820190508181036000830152612d7281612d36565b9050919050565b7f4552433732313a2061646472657373207a65726f206973206e6f74206120766160008201527f6c6964206f776e65720000000000000000000000000000000000000000000000602082015250565b6000612dd5602983612077565b9150612de082612d79565b604082019050919050565b60006020820190508181036000830152612e0481612dc8565b9050919050565b7f6e6f20746f6b656e000000000000000000000000000000000000000000000000600082015250565b6000612e41600883612077565b9150612e4c82612e0b565b602082019050919050565b60006020820190508181036000830152612e7081612e34565b9050919050565b7f4e487b7100000000000000000000000000000000000000000000000000000000600052603260045260246000fd5b7f4552433732313a207472616e736665722066726f6d20696e636f72726563742060008201527f6f776e6572000000000000000000000000000000000000000000000000000000602082015250565b6000612f02602583612077565b9150612f0d82612ea6565b604082019050919050565b60006020820190508181036000830152612f3181612ef5565b9050919050565b7f4552433732313a207472616e7366657220746f20746865207a65726f2061646460008201527f7265737300000000000000000000000000000000000000000000000000000000602082015250565b6000612f94602483612077565b9150612f9f82612f38565b604082019050919050565b60006020820190508181036000830152612fc381612f87565b9050919050565b7f4552433732313a20617070726f766520746f2063616c6c657200000000000000600082015250565b6000613000601983612077565b915061300b82612fca565b602082019050919050565b6000602082019050818103600083015261302f81612ff3565b9050919050565b7f4552433732313a207472616e7366657220746f206e6f6e20455243373231526560008201527f63656976657220696d706c656d656e7465720000000000000000000000000000602082015250565b6000613092603283612077565b915061309d82613036565b604082019050919050565b600060208201905081810360008301526130c181613085565b9050919050565b600081519050919050565b600082825260208201905092915050565b60006130ef826130c8565b6130f981856130d3565b9350613109818560208601612088565b613112816120b2565b840191505092915050565b600060808201905061313260008301876121b3565b61313f60208301866121b3565b61314c60408301856123c7565b818103606083015261315e81846130e4565b905095945050505050565b60008151905061317881611fdd565b92915050565b60006020828403121561319457613193611fa7565b5b60006131a284828501613169565b91505092915050565b7f4552433732313a206d696e7420746f20746865207a65726f2061646472657373600082015250565b60006131e1602083612077565b91506131ec826131ab565b602082019050919050565b60006020820190508181036000830152613210816131d4565b9050919050565b7f4552433732313a20746f6b656e20616c7265616479206d696e74656400000000600082015250565b600061324d601c83612077565b915061325882613217565b602082019050919050565b6000602082019050818103600083015261327c81613240565b905091905056fea2646970667358221220538d0cc596c2379b4ea2a8f27a7989800f47f96067d306e350dc58f62e1d960264736f6c63430008110033",
  "linkReferences": {},
  "deployedLinkReferences": {}
}